{"contracts/TokenAnalyzer.sol":{"TokenAnalyzer":{"abi":[{"inputs":[],"stateMutability":"nonpayable","type":"constructor"},{"anonymous":false,"inputs":[{"indexed":true,"internalType":"address","name":"previousOwner","type":"address"},{"indexed":true,"internalType":"address","name":"newOwner","type":"address"}],"name":"OwnershipTransferred","type":"event"},{"anonymous":false,"inputs":[{"indexed":true,"internalType":"address","name":"token","type":"address"},{"indexed":true,"internalType":"address","name":"analyzer","type":"address"},{"indexed":false,"internalType":"uint256","name":"timestamp","type":"uint256"}],"name":"TokenAnalyzed","type":"event"},{"inputs":[{"internalType":"address","name":"tokenAddress","type":"address"}],"name":"analyzeToken","outputs":[{"components":[{"internalType":"string","name":"name","type":"string"},{"internalType":"string","name":"symbol","type":"string"},{"internalType":"uint8","name":"decimals","type":"uint8"},{"internalType":"uint256","name":"totalSupply","type":"uint256"},{"internalType":"address","name":"owner","type":"address"},{"internalType":"bool","name":"exists","type":"bool"}],"internalType":"struct TokenAnalyzer.TokenInfo","name":"","type":"tuple"}],"stateMutability":"nonpayable","type":"function"},{"inputs":[{"internalType":"address[]","name":"tokens","type":"address[]"}],"name":"batchAnalyze","outputs":[{"components":[{"internalType":"string","name":"name","type":"string"},{"internalType":"string","name":"symbol","type":"string"},{"internalType":"uint8","name":"decimals","type":"uint8"},{"internalType":"uint256","name":"totalSupply","type":"uint256"},{"internalType":"address","name":"owner","type":"address"},{"internalType":"bool","name":"exists","type":"bool"}],"internalType":"struct TokenAnalyzer.TokenInfo[]","name":"","type":"tuple[]"}],"stateMutability":"nonpayable","type":"function"},{"inputs":[{"internalType":"address","name":"tokenAddress","type":"address"}],"name":"calculateRiskScore","outputs":[{"internalType":"uint256","name":"","type":"uint256"}],"stateMutability":"view","type":"function"},{"inputs":[{"internalType":"address","name":"tokenAddress","type":"address"}],"name":"checkSecurityFlags","outputs":[{"components":[{"internalType":"bool","name":"hasOwner","type":"bool"},{"internalType":"bool","name":"hasMintFunction","type":"bool"},{"internalType":"bool","name":"hasBurnFunction","type":"bool"},{"internalType":"bool","name":"hasPauseFunction","type":"bool"},{"internalType":"bool","name":"hasBlacklistFunction","type":"bool"},{"internalType":"bool","name":"ownershipRenounced","type":"bool"}],"internalType":"struct TokenAnalyzer.SecurityFlags","name":"","type":"tuple"}],"stateMutability":"view","type":"function"},{"inputs":[{"internalType":"address","name":"tokenAddress","type":"address"}],"name":"getTokenInfo","outputs":[{"components":[{"internalType":"string","name":"name","type":"string"},{"internalType":"string","name":"symbol","type":"string"},{"internalType":"uint8","name":"decimals","type":"uint8"},{"internalType":"uint256","name":"totalSupply","type":"uint256"},{"internalType":"address","name":"owner","type":"address"},{"internalType":"bool","name":"exists","type":"bool"}],"internalType":"struct TokenAnalyzer.TokenInfo","name":"","type":"tuple"}],"stateMutability":"view","type":"function"},{"inputs":[],"name":"owner","outputs":[{"internalType":"address","name":"","type":"address"}],"stateMutability":"view","type":"function"},{"inputs":[],"name":"renounceOwnership","outputs":[],"stateMutability":"nonpayable","type":"function"},{"inputs":[{"internalType":"address","name":"tokenAddress","type":"address"},{"internalType":"bool","name":"hasOwner","type":"bool"},{"internalType":"bool","name":"hasMintFunction","type":"bool"},{"internalType":"bool","name":"hasBurnFunction","type":"bool"},{"internalType":"bool","name":"hasPauseFunction","type":"bool"},{"internalType":"bool","name":"hasBlacklistFunction","type":"bool"},{"internalType":"bool","name":"ownershipRenounced","type":"bool"}],"name":"setSecurityFlags","outputs":[],"stateMutability":"nonpayable","type":"function"},{"inputs":[{"internalType":"address","name":"newOwner","type":"address"}],"name":"transferOwnership","outputs":[],"stateMutability":"nonpayable","type":"function"}],"evm":{"bytecode":{"linkReferences":{},"object":"608060405234801561001057600080fd5b5061002d61002261003960201b60201c565b61004160201b60201c565b60018081905550610105565b600033905090565b60008060009054906101000a900473ffffffffffffffffffffffffffffffffffffffff169050816000806101000a81548173ffffffffffffffffffffffffffffffffffffffff021916908373ffffffffffffffffffffffffffffffffffffffff1602179055508173ffffffffffffffffffffffffffffffffffffffff168173ffffffffffffffffffffffffffffffffffffffff167f8be0079c531659141344cd1fd0a4f28419497f9722a3daafe3b4186f6b6457e060405160405180910390a35050565b61224c80620001156000396000f3fe608060405234801561001057600080fd5b50600436106100935760003560e01c80638da5cb5b116100665780638da5cb5b1461013257806391d011ce14610150578063ab99984114610180578063e8b600ba146101b0578063f2fde38b146101cc57610093565b80631dee7643146100985780631f69565f146100c857806359a573b3146100f8578063715018a614610128575b600080fd5b6100b260048036038101906100ad919061129b565b6101e8565b6040516100bf919061135e565b60405180910390f35b6100e260048036038101906100dd919061129b565b6102e3565b6040516100ef91906114dd565b60405180910390f35b610112600480360381019061010d919061129b565b6104f8565b60405161011f91906114dd565b60405180910390f35b610130610ab6565b005b61013a610aca565b604051610147919061150e565b60405180910390f35b61016a6004803603810190610165919061129b565b610af3565b6040516101779190611538565b60405180910390f35b61019a600480360381019061019591906115b8565b610c7f565b6040516101a79190611757565b60405180910390f35b6101ca60048036038101906101c591906117a5565b610e25565b005b6101e660048036038101906101e1919061129b565b610f71565b005b6101f0611196565b600360008373ffffffffffffffffffffffffffffffffffffffff1673ffffffffffffffffffffffffffffffffffffffff1681526020019081526020016000206040518060c00160405290816000820160009054906101000a900460ff161515151581526020016000820160019054906101000a900460ff161515151581526020016000820160029054906101000a900460ff161515151581526020016000820160039054906101000a900460ff161515151581526020016000820160049054906101000a900460ff161515151581526020016000820160059054906101000a900460ff1615151515815250509050919050565b6102eb6111d8565b600260008373ffffffffffffffffffffffffffffffffffffffff1673ffffffffffffffffffffffffffffffffffffffff1681526020019081526020016000206040518060c001604052908160008201805461034590611876565b80601f016020809104026020016040519081016040528092919081815260200182805461037190611876565b80156103be5780601f10610393576101008083540402835291602001916103be565b820191906000526020600020905b8154815290600101906020018083116103a157829003601f168201915b505050505081526020016001820180546103d790611876565b80601f016020809104026020016040519081016040528092919081815260200182805461040390611876565b80156104505780601f1061042557610100808354040283529160200191610450565b820191906000526020600020905b81548152906001019060200180831161043357829003601f168201915b505050505081526020016002820160009054906101000a900460ff1660ff1660ff168152602001600382015481526020016004820160009054906101000a900473ffffffffffffffffffffffffffffffffffffffff1673ffffffffffffffffffffffffffffffffffffffff1673ffffffffffffffffffffffffffffffffffffffff1681526020016004820160149054906101000a900460ff1615151515815250509050919050565b6105006111d8565b610508610ff4565b600073ffffffffffffffffffffffffffffffffffffffff168273ffffffffffffffffffffffffffffffffffffffff1603610577576040517f08c379a000000000000000000000000000000000000000000000000000000000815260040161056e90611904565b60405180910390fd5b61057f6111d8565b8273ffffffffffffffffffffffffffffffffffffffff166306fdde036040518163ffffffff1660e01b8152600401600060405180830381865afa9250505080156105ec57506040513d6000823e3d601f19601f820116820180604052508101906105e99190611a45565b60015b610633576040518060400160405280600a81526020017f44656d6f20546f6b656e00000000000000000000000000000000000000000000815250816000018190525061063e565b808260000181905250505b8273ffffffffffffffffffffffffffffffffffffffff166395d89b416040518163ffffffff1660e01b8152600401600060405180830381865afa9250505080156106ab57506040513d6000823e3d601f19601f820116820180604052508101906106a89190611a45565b60015b6106f2576040518060400160405280600481526020017f44454d4f0000000000000000000000000000000000000000000000000000000081525081602001819052506106fd565b808260200181905250505b8273ffffffffffffffffffffffffffffffffffffffff1663313ce5676040518163ffffffff1660e01b8152600401602060405180830381865afa92505050801561076557506040513d601f19601f820116820180604052508101906107629190611aba565b60015b610781576012816040019060ff16908160ff1681525050610795565b80826040019060ff16908160ff1681525050505b8273ffffffffffffffffffffffffffffffffffffffff166318160ddd6040518163ffffffff1660e01b8152600401602060405180830381865afa9250505080156107fd57506040513d601f19601f820116820180604052508101906107fa9190611b13565b60015b61082b5769d3c21bcecceda100000081606001818152505060018160a0019015159081151581525050610848565b8082606001818152505060018260a0019015159081151581525050505b8273ffffffffffffffffffffffffffffffffffffffff16638da5cb5b6040518163ffffffff1660e01b8152600401602060405180830381865afa9250505080156108b057506040513d601f19601f820116820180604052508101906108ad9190611b55565b60015b6109055773f39fd6e51aad88f6f4ce6ab8827279cfffb92266816080019073ffffffffffffffffffffffffffffffffffffffff16908173ffffffffffffffffffffffffffffffffffffffff168152505061093f565b80826080019073ffffffffffffffffffffffffffffffffffffffff16908173ffffffffffffffffffffffffffffffffffffffff1681525050505b80600260008573ffffffffffffffffffffffffffffffffffffffff1673ffffffffffffffffffffffffffffffffffffffff16815260200190815260200160002060008201518160000190816109949190611d2e565b5060208201518160010190816109aa9190611d2e565b5060408201518160020160006101000a81548160ff021916908360ff1602179055506060820151816003015560808201518160040160006101000a81548173ffffffffffffffffffffffffffffffffffffffff021916908373ffffffffffffffffffffffffffffffffffffffff16021790555060a08201518160040160146101000a81548160ff0219169083151502179055509050503373ffffffffffffffffffffffffffffffffffffffff168373ffffffffffffffffffffffffffffffffffffffff167f35fce28f18b72741a71b6649c6c259476bb27d9ac27b2ebad4645c44ae7616e342604051610a9d9190611538565b60405180910390a380915050610ab1611043565b919050565b610abe61104c565b610ac860006110ca565b565b60008060009054906101000a900473ffffffffffffffffffffffffffffffffffffffff16905090565b600080600360008473ffffffffffffffffffffffffffffffffffffffff1673ffffffffffffffffffffffffffffffffffffffff1681526020019081526020016000206040518060c00160405290816000820160009054906101000a900460ff161515151581526020016000820160019054906101000a900460ff161515151581526020016000820160029054906101000a900460ff161515151581526020016000820160039054906101000a900460ff161515151581526020016000820160049054906101000a900460ff161515151581526020016000820160059054906101000a900460ff1615151515815250509050600081600001518015610bf957508160a00151155b15610c0e57601481610c0b9190611e2f565b90505b816020015115610c2857601981610c259190611e2f565b90505b816060015115610c4257600f81610c3f9190611e2f565b90505b816080015115610c5c57601e81610c599190611e2f565b90505b8160400151610c7557600a81610c729190611e2f565b90505b8092505050919050565b6060610c89610ff4565b600a838390501115610cd0576040517f08c379a0000000000000000000000000000000000000000000000000000000008152600401610cc790611ed5565b60405180910390fd5b60008383905067ffffffffffffffff811115610cef57610cee611929565b5b604051908082528060200260200182016040528015610d2857816020015b610d156111d8565b815260200190600190039081610d0d5790505b50905060005b84849050811015610e12573073ffffffffffffffffffffffffffffffffffffffff166359a573b3868684818110610d6857610d67611ef5565b5b9050602002016020810190610d7d919061129b565b6040518263ffffffff1660e01b8152600401610d99919061150e565b6000604051808303816000875af1158015610db8573d6000803e3d6000fd5b505050506040513d6000823e3d601f19601f82011682018060405250810190610de1919061201b565b828281518110610df457610df3611ef5565b5b60200260200101819052508080610e0a90612064565b915050610d2e565b5080915050610e1f611043565b92915050565b610e2d61104c565b6040518060c0016040528087151581526020018615158152602001851515815260200184151581526020018315158152602001821515815250600360008973ffffffffffffffffffffffffffffffffffffffff1673ffffffffffffffffffffffffffffffffffffffff16815260200190815260200160002060008201518160000160006101000a81548160ff02191690831515021790555060208201518160000160016101000a81548160ff02191690831515021790555060408201518160000160026101000a81548160ff02191690831515021790555060608201518160000160036101000a81548160ff02191690831515021790555060808201518160000160046101000a81548160ff02191690831515021790555060a08201518160000160056101000a81548160ff02191690831515021790555090505050505050505050565b610f7961104c565b600073ffffffffffffffffffffffffffffffffffffffff168173ffffffffffffffffffffffffffffffffffffffff1603610fe8576040517f08c379a0000000000000000000000000000000000000000000000000000000008152600401610fdf9061211e565b60405180910390fd5b610ff1816110ca565b50565b600260015403611039576040517f08c379a00000000000000000000000000000000000000000000000000000000081526004016110309061218a565b60405180910390fd5b6002600181905550565b60018081905550565b61105461118e565b73ffffffffffffffffffffffffffffffffffffffff16611072610aca565b73ffffffffffffffffffffffffffffffffffffffff16146110c8576040517f08c379a00000000000000000000000000000000000000000000000000000000081526004016110bf906121f6565b60405180910390fd5b565b60008060009054906101000a900473ffffffffffffffffffffffffffffffffffffffff169050816000806101000a81548173ffffffffffffffffffffffffffffffffffffffff021916908373ffffffffffffffffffffffffffffffffffffffff1602179055508173ffffffffffffffffffffffffffffffffffffffff168173ffffffffffffffffffffffffffffffffffffffff167f8be0079c531659141344cd1fd0a4f28419497f9722a3daafe3b4186f6b6457e060405160405180910390a35050565b600033905090565b6040518060c001604052806000151581526020016000151581526020016000151581526020016000151581526020016000151581526020016000151581525090565b6040518060c001604052806060815260200160608152602001600060ff16815260200160008152602001600073ffffffffffffffffffffffffffffffffffffffff1681526020016000151581525090565b6000604051905090565b600080fd5b600080fd5b600073ffffffffffffffffffffffffffffffffffffffff82169050919050565b60006112688261123d565b9050919050565b6112788161125d565b811461128357600080fd5b50565b6000813590506112958161126f565b92915050565b6000602082840312156112b1576112b0611233565b5b60006112bf84828501611286565b91505092915050565b60008115159050919050565b6112dd816112c8565b82525050565b60c0820160008201516112f960008501826112d4565b50602082015161130c60208501826112d4565b50604082015161131f60408501826112d4565b50606082015161133260608501826112d4565b50608082015161134560808501826112d4565b5060a082015161135860a08501826112d4565b50505050565b600060c08201905061137360008301846112e3565b92915050565b600081519050919050565b600082825260208201905092915050565b60005b838110156113b3578082015181840152602081019050611398565b60008484015250505050565b6000601f19601f8301169050919050565b60006113db82611379565b6113e58185611384565b93506113f5818560208601611395565b6113fe816113bf565b840191505092915050565b600060ff82169050919050565b61141f81611409565b82525050565b6000819050919050565b61143881611425565b82525050565b6114478161125d565b82525050565b600060c083016000830151848203600086015261146a82826113d0565b9150506020830151848203602086015261148482826113d0565b91505060408301516114996040860182611416565b5060608301516114ac606086018261142f565b5060808301516114bf608086018261143e565b5060a08301516114d260a08601826112d4565b508091505092915050565b600060208201905081810360008301526114f7818461144d565b905092915050565b6115088161125d565b82525050565b600060208201905061152360008301846114ff565b92915050565b61153281611425565b82525050565b600060208201905061154d6000830184611529565b92915050565b600080fd5b600080fd5b600080fd5b60008083601f84011261157857611577611553565b5b8235905067ffffffffffffffff81111561159557611594611558565b5b6020830191508360208202830111156115b1576115b061155d565b5b9250929050565b600080602083850312156115cf576115ce611233565b5b600083013567ffffffffffffffff8111156115ed576115ec611238565b5b6115f985828601611562565b92509250509250929050565b600081519050919050565b600082825260208201905092915050565b6000819050602082019050919050565b600060c083016000830151848203600086015261164e82826113d0565b9150506020830151848203602086015261166882826113d0565b915050604083015161167d6040860182611416565b506060830151611690606086018261142f565b5060808301516116a3608086018261143e565b5060a08301516116b660a08601826112d4565b508091505092915050565b60006116cd8383611631565b905092915050565b6000602082019050919050565b60006116ed82611605565b6116f78185611610565b93508360208202850161170985611621565b8060005b85811015611745578484038952815161172685826116c1565b9450611731836116d5565b925060208a0199505060018101905061170d565b50829750879550505050505092915050565b6000602082019050818103600083015261177181846116e2565b905092915050565b611782816112c8565b811461178d57600080fd5b50565b60008135905061179f81611779565b92915050565b600080600080600080600060e0888a0312156117c4576117c3611233565b5b60006117d28a828b01611286565b97505060206117e38a828b01611790565b96505060406117f48a828b01611790565b95505060606118058a828b01611790565b94505060806118168a828b01611790565b93505060a06118278a828b01611790565b92505060c06118388a828b01611790565b91505092959891949750929550565b7f4e487b7100000000000000000000000000000000000000000000000000000000600052602260045260246000fd5b6000600282049050600182168061188e57607f821691505b6020821081036118a1576118a0611847565b5b50919050565b600082825260208201905092915050565b7f496e76616c696420746f6b656e20616464726573730000000000000000000000600082015250565b60006118ee6015836118a7565b91506118f9826118b8565b602082019050919050565b6000602082019050818103600083015261191d816118e1565b9050919050565b600080fd5b7f4e487b7100000000000000000000000000000000000000000000000000000000600052604160045260246000fd5b611961826113bf565b810181811067ffffffffffffffff821117156119805761197f611929565b5b80604052505050565b6000611993611229565b905061199f8282611958565b919050565b600067ffffffffffffffff8211156119bf576119be611929565b5b6119c8826113bf565b9050602081019050919050565b60006119e86119e3846119a4565b611989565b905082815260208101848484011115611a0457611a03611924565b5b611a0f848285611395565b509392505050565b600082601f830112611a2c57611a2b611553565b5b8151611a3c8482602086016119d5565b91505092915050565b600060208284031215611a5b57611a5a611233565b5b600082015167ffffffffffffffff811115611a7957611a78611238565b5b611a8584828501611a17565b91505092915050565b611a9781611409565b8114611aa257600080fd5b50565b600081519050611ab481611a8e565b92915050565b600060208284031215611ad057611acf611233565b5b6000611ade84828501611aa5565b91505092915050565b611af081611425565b8114611afb57600080fd5b50565b600081519050611b0d81611ae7565b92915050565b600060208284031215611b2957611b28611233565b5b6000611b3784828501611afe565b91505092915050565b600081519050611b4f8161126f565b92915050565b600060208284031215611b6b57611b6a611233565b5b6000611b7984828501611b40565b91505092915050565b60008190508160005260206000209050919050565b60006020601f8301049050919050565b600082821b905092915050565b600060088302611be47fffffffffffffffffffffffffffffffffffffffffffffffffffffffffffffffff82611ba7565b611bee8683611ba7565b95508019841693508086168417925050509392505050565b6000819050919050565b6000611c2b611c26611c2184611425565b611c06565b611425565b9050919050565b6000819050919050565b611c4583611c10565b611c59611c5182611c32565b848454611bb4565b825550505050565b600090565b611c6e611c61565b611c79818484611c3c565b505050565b5b81811015611c9d57611c92600082611c66565b600181019050611c7f565b5050565b601f821115611ce257611cb381611b82565b611cbc84611b97565b81016020851015611ccb578190505b611cdf611cd785611b97565b830182611c7e565b50505b505050565b600082821c905092915050565b6000611d0560001984600802611ce7565b1980831691505092915050565b6000611d1e8383611cf4565b9150826002028217905092915050565b611d3782611379565b67ffffffffffffffff811115611d5057611d4f611929565b5b611d5a8254611876565b611d65828285611ca1565b600060209050601f831160018114611d985760008415611d86578287015190505b611d908582611d12565b865550611df8565b601f198416611da686611b82565b60005b82811015611dce57848901518255600182019150602085019450602081019050611da9565b86831015611deb5784890151611de7601f891682611cf4565b8355505b6001600288020188555050505b505050505050565b7f4e487b7100000000000000000000000000000000000000000000000000000000600052601160045260246000fd5b6000611e3a82611425565b9150611e4583611425565b9250828201905080821115611e5d57611e5c611e00565b5b92915050565b7f546f6f206d616e7920746f6b656e7320746f20616e616c797a65206174206f6e60008201527f6365000000000000000000000000000000000000000000000000000000000000602082015250565b6000611ebf6022836118a7565b9150611eca82611e63565b604082019050919050565b60006020820190508181036000830152611eee81611eb2565b9050919050565b7f4e487b7100000000000000000000000000000000000000000000000000000000600052603260045260246000fd5b600080fd5b600080fd5b600081519050611f3d81611779565b92915050565b600060c08284031215611f5957611f58611f24565b5b611f6360c0611989565b9050600082015167ffffffffffffffff811115611f8357611f82611f29565b5b611f8f84828501611a17565b600083015250602082015167ffffffffffffffff811115611fb357611fb2611f29565b5b611fbf84828501611a17565b6020830152506040611fd384828501611aa5565b6040830152506060611fe784828501611afe565b6060830152506080611ffb84828501611b40565b60808301525060a061200f84828501611f2e565b60a08301525092915050565b60006020828403121561203157612030611233565b5b600082015167ffffffffffffffff81111561204f5761204e611238565b5b61205b84828501611f43565b91505092915050565b600061206f82611425565b91507fffffffffffffffffffffffffffffffffffffffffffffffffffffffffffffffff82036120a1576120a0611e00565b5b600182019050919050565b7f4f776e61626c653a206e6577206f776e657220697320746865207a65726f206160008201527f6464726573730000000000000000000000000000000000000000000000000000602082015250565b60006121086026836118a7565b9150612113826120ac565b604082019050919050565b60006020820190508181036000830152612137816120fb565b9050919050565b7f5265656e7472616e637947756172643a207265656e7472616e742063616c6c00600082015250565b6000612174601f836118a7565b915061217f8261213e565b602082019050919050565b600060208201905081810360008301526121a381612167565b9050919050565b7f4f776e61626c653a2063616c6c6572206973206e6f7420746865206f776e6572600082015250565b60006121e06020836118a7565b91506121eb826121aa565b602082019050919050565b6000602082019050818103600083015261220f816121d3565b905091905056fea26469706673582212207b188f82af2253ea678896f40ad3974cd3612825dd3e5ed76688e01c39780d0d64736f6c63430008130033","opcodes":"PUSH1 0x80 PUSH1 0x40 MSTORE CALLVALUE DUP1 ISZERO PUSH2 0x10 JUMPI PUSH1 0x0 DUP1 REVERT JUMPDEST POP PUSH2 0x2D PUSH2 0x22 PUSH2 0x39 PUSH1 0x20 SHL PUSH1 0x20 SHR JUMP JUMPDEST PUSH2 0x41 PUSH1 0x20 SHL PUSH1 0x20 SHR JUMP JUMPDEST PUSH1 0x1 DUP1 DUP2 SWAP1 SSTORE POP PUSH2 0x105 JUMP JUMPDEST PUSH1 0x0 CALLER SWAP1 POP SWAP1 JUMP JUMPDEST PUSH1 0x0 DUP1 PUSH1 0x0 SWAP1 SLOAD SWAP1 PUSH2 0x100 EXP SWAP1 DIV PUSH20 0xFFFFFFFFFFFFFFFFFFFFFFFFFFFFFFFFFFFFFFFF AND SWAP1 POP DUP2 PUSH1 0x0 DUP1 PUSH2 0x100 EXP DUP2 SLOAD DUP2 PUSH20 0xFFFFFFFFFFFFFFFFFFFFFFFFFFFFFFFFFFFFFFFF MUL NOT AND SWAP1 DUP4 PUSH20 0xFFFFFFFFFFFFFFFFFFFFFFFFFFFFFFFFFFFFFFFF AND MUL OR SWAP1 SSTORE POP DUP2 PUSH20 0xFFFFFFFFFFFFFFFFFFFFFFFFFFFFFFFFFFFFFFFF AND DUP2 PUSH20 0xFFFFFFFFFFFFFFFFFFFFFFFFFFFFFFFFFFFFFFFF AND PUSH32 0x8BE0079C531659141344CD1FD0A4F28419497F9722A3DAAFE3B4186F6B6457E0 PUSH1 0x40 MLOAD PUSH1 0x40 MLOAD DUP1 SWAP2 SUB SWAP1 LOG3 POP POP JUMP JUMPDEST PUSH2 0x224C DUP1 PUSH3 0x115 PUSH1 0x0 CODECOPY PUSH1 0x0 RETURN INVALID PUSH1 0x80 PUSH1 0x40 MSTORE CALLVALUE DUP1 ISZERO PUSH2 0x10 JUMPI PUSH1 0x0 DUP1 REVERT JUMPDEST POP PUSH1 0x4 CALLDATASIZE LT PUSH2 0x93 JUMPI PUSH1 0x0 CALLDATALOAD PUSH1 0xE0 SHR DUP1 PUSH4 0x8DA5CB5B GT PUSH2 0x66 JUMPI DUP1 PUSH4 0x8DA5CB5B EQ PUSH2 0x132 JUMPI DUP1 PUSH4 0x91D011CE EQ PUSH2 0x150 JUMPI DUP1 PUSH4 0xAB999841 EQ PUSH2 0x180 JUMPI DUP1 PUSH4 0xE8B600BA EQ PUSH2 0x1B0 JUMPI DUP1 PUSH4 0xF2FDE38B EQ PUSH2 0x1CC JUMPI PUSH2 0x93 JUMP JUMPDEST DUP1 PUSH4 0x1DEE7643 EQ PUSH2 0x98 JUMPI DUP1 PUSH4 0x1F69565F EQ PUSH2 0xC8 JUMPI DUP1 PUSH4 0x59A573B3 EQ PUSH2 0xF8 JUMPI DUP1 PUSH4 0x715018A6 EQ PUSH2 0x128 JUMPI JUMPDEST PUSH1 0x0 DUP1 REVERT JUMPDEST PUSH2 0xB2 PUSH1 0x4 DUP1 CALLDATASIZE SUB DUP2 ADD SWAP1 PUSH2 0xAD SWAP2 SWAP1 PUSH2 0x129B JUMP JUMPDEST PUSH2 0x1E8 JUMP JUMPDEST PUSH1 0x40 MLOAD PUSH2 0xBF SWAP2 SWAP1 PUSH2 0x135E JUMP JUMPDEST PUSH1 0x40 MLOAD DUP1 SWAP2 SUB SWAP1 RETURN JUMPDEST PUSH2 0xE2 PUSH1 0x4 DUP1 CALLDATASIZE SUB DUP2 ADD SWAP1 PUSH2 0xDD SWAP2 SWAP1 PUSH2 0x129B JUMP JUMPDEST PUSH2 0x2E3 JUMP JUMPDEST PUSH1 0x40 MLOAD PUSH2 0xEF SWAP2 SWAP1 PUSH2 0x14DD JUMP JUMPDEST PUSH1 0x40 MLOAD DUP1 SWAP2 SUB SWAP1 RETURN JUMPDEST PUSH2 0x112 PUSH1 0x4 DUP1 CALLDATASIZE SUB DUP2 ADD SWAP1 PUSH2 0x10D SWAP2 SWAP1 PUSH2 0x129B JUMP JUMPDEST PUSH2 0x4F8 JUMP JUMPDEST PUSH1 0x40 MLOAD PUSH2 0x11F SWAP2 SWAP1 PUSH2 0x14DD JUMP JUMPDEST PUSH1 0x40 MLOAD DUP1 SWAP2 SUB SWAP1 RETURN JUMPDEST PUSH2 0x130 PUSH2 0xAB6 JUMP JUMPDEST STOP JUMPDEST PUSH2 0x13A PUSH2 0xACA JUMP JUMPDEST PUSH1 0x40 MLOAD PUSH2 0x147 SWAP2 SWAP1 PUSH2 0x150E JUMP JUMPDEST PUSH1 0x40 MLOAD DUP1 SWAP2 SUB SWAP1 RETURN JUMPDEST PUSH2 0x16A PUSH1 0x4 DUP1 CALLDATASIZE SUB DUP2 ADD SWAP1 PUSH2 0x165 SWAP2 SWAP1 PUSH2 0x129B JUMP JUMPDEST PUSH2 0xAF3 JUMP JUMPDEST PUSH1 0x40 MLOAD PUSH2 0x177 SWAP2 SWAP1 PUSH2 0x1538 JUMP JUMPDEST PUSH1 0x40 MLOAD DUP1 SWAP2 SUB SWAP1 RETURN JUMPDEST PUSH2 0x19A PUSH1 0x4 DUP1 CALLDATASIZE SUB DUP2 ADD SWAP1 PUSH2 0x195 SWAP2 SWAP1 PUSH2 0x15B8 JUMP JUMPDEST PUSH2 0xC7F JUMP JUMPDEST PUSH1 0x40 MLOAD PUSH2 0x1A7 SWAP2 SWAP1 PUSH2 0x1757 JUMP JUMPDEST PUSH1 0x40 MLOAD DUP1 SWAP2 SUB SWAP1 RETURN JUMPDEST PUSH2 0x1CA PUSH1 0x4 DUP1 CALLDATASIZE SUB DUP2 ADD SWAP1 PUSH2 0x1C5 SWAP2 SWAP1 PUSH2 0x17A5 JUMP JUMPDEST PUSH2 0xE25 JUMP JUMPDEST STOP JUMPDEST PUSH2 0x1E6 PUSH1 0x4 DUP1 CALLDATASIZE SUB DUP2 ADD SWAP1 PUSH2 0x1E1 SWAP2 SWAP1 PUSH2 0x129B JUMP JUMPDEST PUSH2 0xF71 JUMP JUMPDEST STOP JUMPDEST PUSH2 0x1F0 PUSH2 0x1196 JUMP JUMPDEST PUSH1 0x3 PUSH1 0x0 DUP4 PUSH20 0xFFFFFFFFFFFFFFFFFFFFFFFFFFFFFFFFFFFFFFFF AND PUSH20 0xFFFFFFFFFFFFFFFFFFFFFFFFFFFFFFFFFFFFFFFF AND DUP2 MSTORE PUSH1 0x20 ADD SWAP1 DUP2 MSTORE PUSH1 0x20 ADD PUSH1 0x0 KECCAK256 PUSH1 0x40 MLOAD DUP1 PUSH1 0xC0 ADD PUSH1 0x40 MSTORE SWAP1 DUP2 PUSH1 0x0 DUP3 ADD PUSH1 0x0 SWAP1 SLOAD SWAP1 PUSH2 0x100 EXP SWAP1 DIV PUSH1 0xFF AND ISZERO ISZERO ISZERO ISZERO DUP2 MSTORE PUSH1 0x20 ADD PUSH1 0x0 DUP3 ADD PUSH1 0x1 SWAP1 SLOAD SWAP1 PUSH2 0x100 EXP SWAP1 DIV PUSH1 0xFF AND ISZERO ISZERO ISZERO ISZERO DUP2 MSTORE PUSH1 0x20 ADD PUSH1 0x0 DUP3 ADD PUSH1 0x2 SWAP1 SLOAD SWAP1 PUSH2 0x100 EXP SWAP1 DIV PUSH1 0xFF AND ISZERO ISZERO ISZERO ISZERO DUP2 MSTORE PUSH1 0x20 ADD PUSH1 0x0 DUP3 ADD PUSH1 0x3 SWAP1 SLOAD SWAP1 PUSH2 0x100 EXP SWAP1 DIV PUSH1 0xFF AND ISZERO ISZERO ISZERO ISZERO DUP2 MSTORE PUSH1 0x20 ADD PUSH1 0x0 DUP3 ADD PUSH1 0x4 SWAP1 SLOAD SWAP1 PUSH2 0x100 EXP SWAP1 DIV PUSH1 0xFF AND ISZERO ISZERO ISZERO ISZERO DUP2 MSTORE PUSH1 0x20 ADD PUSH1 0x0 DUP3 ADD PUSH1 0x5 SWAP1 SLOAD SWAP1 PUSH2 0x100 EXP SWAP1 DIV PUSH1 0xFF AND ISZERO ISZERO ISZERO ISZERO DUP2 MSTORE POP POP SWAP1 POP SWAP2 SWAP1 POP JUMP JUMPDEST PUSH2 0x2EB PUSH2 0x11D8 JUMP JUMPDEST PUSH1 0x2 PUSH1 0x0 DUP4 PUSH20 0xFFFFFFFFFFFFFFFFFFFFFFFFFFFFFFFFFFFFFFFF AND PUSH20 0xFFFFFFFFFFFFFFFFFFFFFFFFFFFFFFFFFFFFFFFF AND DUP2 MSTORE PUSH1 0x20 ADD SWAP1 DUP2 MSTORE PUSH1 0x20 ADD PUSH1 0x0 KECCAK256 PUSH1 0x40 MLOAD DUP1 PUSH1 0xC0 ADD PUSH1 0x40 MSTORE SWAP1 DUP2 PUSH1 0x0 DUP3 ADD DUP1 SLOAD PUSH2 0x345 SWAP1 PUSH2 0x1876 JUMP JUMPDEST DUP1 PUSH1 0x1F ADD PUSH1 0x20 DUP1 SWAP2 DIV MUL PUSH1 0x20 ADD PUSH1 0x40 MLOAD SWAP1 DUP2 ADD PUSH1 0x40 MSTORE DUP1 SWAP3 SWAP2 SWAP1 DUP2 DUP2 MSTORE PUSH1 0x20 ADD DUP3 DUP1 SLOAD PUSH2 0x371 SWAP1 PUSH2 0x1876 JUMP JUMPDEST DUP1 ISZERO PUSH2 0x3BE JUMPI DUP1 PUSH1 0x1F LT PUSH2 0x393 JUMPI PUSH2 0x100 DUP1 DUP4 SLOAD DIV MUL DUP4 MSTORE SWAP2 PUSH1 0x20 ADD SWAP2 PUSH2 0x3BE JUMP JUMPDEST DUP3 ADD SWAP2 SWAP1 PUSH1 0x0 MSTORE PUSH1 0x20 PUSH1 0x0 KECCAK256 SWAP1 JUMPDEST DUP2 SLOAD DUP2 MSTORE SWAP1 PUSH1 0x1 ADD SWAP1 PUSH1 0x20 ADD DUP1 DUP4 GT PUSH2 0x3A1 JUMPI DUP3 SWAP1 SUB PUSH1 0x1F AND DUP3 ADD SWAP2 JUMPDEST POP POP POP POP POP DUP2 MSTORE PUSH1 0x20 ADD PUSH1 0x1 DUP3 ADD DUP1 SLOAD PUSH2 0x3D7 SWAP1 PUSH2 0x1876 JUMP JUMPDEST DUP1 PUSH1 0x1F ADD PUSH1 0x20 DUP1 SWAP2 DIV MUL PUSH1 0x20 ADD PUSH1 0x40 MLOAD SWAP1 DUP2 ADD PUSH1 0x40 MSTORE DUP1 SWAP3 SWAP2 SWAP1 DUP2 DUP2 MSTORE PUSH1 0x20 ADD DUP3 DUP1 SLOAD PUSH2 0x403 SWAP1 PUSH2 0x1876 JUMP JUMPDEST DUP1 ISZERO PUSH2 0x450 JUMPI DUP1 PUSH1 0x1F LT PUSH2 0x425 JUMPI PUSH2 0x100 DUP1 DUP4 SLOAD DIV MUL DUP4 MSTORE SWAP2 PUSH1 0x20 ADD SWAP2 PUSH2 0x450 JUMP JUMPDEST DUP3 ADD SWAP2 SWAP1 PUSH1 0x0 MSTORE PUSH1 0x20 PUSH1 0x0 KECCAK256 SWAP1 JUMPDEST DUP2 SLOAD DUP2 MSTORE SWAP1 PUSH1 0x1 ADD SWAP1 PUSH1 0x20 ADD DUP1 DUP4 GT PUSH2 0x433 JUMPI DUP3 SWAP1 SUB PUSH1 0x1F AND DUP3 ADD SWAP2 JUMPDEST POP POP POP POP POP DUP2 MSTORE PUSH1 0x20 ADD PUSH1 0x2 DUP3 ADD PUSH1 0x0 SWAP1 SLOAD SWAP1 PUSH2 0x100 EXP SWAP1 DIV PUSH1 0xFF AND PUSH1 0xFF AND PUSH1 0xFF AND DUP2 MSTORE PUSH1 0x20 ADD PUSH1 0x3 DUP3 ADD SLOAD DUP2 MSTORE PUSH1 0x20 ADD PUSH1 0x4 DUP3 ADD PUSH1 0x0 SWAP1 SLOAD SWAP1 PUSH2 0x100 EXP SWAP1 DIV PUSH20 0xFFFFFFFFFFFFFFFFFFFFFFFFFFFFFFFFFFFFFFFF AND PUSH20 0xFFFFFFFFFFFFFFFFFFFFFFFFFFFFFFFFFFFFFFFF AND PUSH20 0xFFFFFFFFFFFFFFFFFFFFFFFFFFFFFFFFFFFFFFFF AND DUP2 MSTORE PUSH1 0x20 ADD PUSH1 0x4 DUP3 ADD PUSH1 0x14 SWAP1 SLOAD SWAP1 PUSH2 0x100 EXP SWAP1 DIV PUSH1 0xFF AND ISZERO ISZERO ISZERO ISZERO DUP2 MSTORE POP POP SWAP1 POP SWAP2 SWAP1 POP JUMP JUMPDEST PUSH2 0x500 PUSH2 0x11D8 JUMP JUMPDEST PUSH2 0x508 PUSH2 0xFF4 JUMP JUMPDEST PUSH1 0x0 PUSH20 0xFFFFFFFFFFFFFFFFFFFFFFFFFFFFFFFFFFFFFFFF AND DUP3 PUSH20 0xFFFFFFFFFFFFFFFFFFFFFFFFFFFFFFFFFFFFFFFF AND SUB PUSH2 0x577 JUMPI PUSH1 0x40 MLOAD PUSH32 0x8C379A000000000000000000000000000000000000000000000000000000000 DUP2 MSTORE PUSH1 0x4 ADD PUSH2 0x56E SWAP1 PUSH2 0x1904 JUMP JUMPDEST PUSH1 0x40 MLOAD DUP1 SWAP2 SUB SWAP1 REVERT JUMPDEST PUSH2 0x57F PUSH2 0x11D8 JUMP JUMPDEST DUP3 PUSH20 0xFFFFFFFFFFFFFFFFFFFFFFFFFFFFFFFFFFFFFFFF AND PUSH4 0x6FDDE03 PUSH1 0x40 MLOAD DUP2 PUSH4 0xFFFFFFFF AND PUSH1 0xE0 SHL DUP2 MSTORE PUSH1 0x4 ADD PUSH1 0x0 PUSH1 0x40 MLOAD DUP1 DUP4 SUB DUP2 DUP7 GAS STATICCALL SWAP3 POP POP POP DUP1 ISZERO PUSH2 0x5EC JUMPI POP PUSH1 0x40 MLOAD RETURNDATASIZE PUSH1 0x0 DUP3 RETURNDATACOPY RETURNDATASIZE PUSH1 0x1F NOT PUSH1 0x1F DUP3 ADD AND DUP3 ADD DUP1 PUSH1 0x40 MSTORE POP DUP2 ADD SWAP1 PUSH2 0x5E9 SWAP2 SWAP1 PUSH2 0x1A45 JUMP JUMPDEST PUSH1 0x1 JUMPDEST PUSH2 0x633 JUMPI PUSH1 0x40 MLOAD DUP1 PUSH1 0x40 ADD PUSH1 0x40 MSTORE DUP1 PUSH1 0xA DUP2 MSTORE PUSH1 0x20 ADD PUSH32 0x44656D6F20546F6B656E00000000000000000000000000000000000000000000 DUP2 MSTORE POP DUP2 PUSH1 0x0 ADD DUP2 SWAP1 MSTORE POP PUSH2 0x63E JUMP JUMPDEST DUP1 DUP3 PUSH1 0x0 ADD DUP2 SWAP1 MSTORE POP POP JUMPDEST DUP3 PUSH20 0xFFFFFFFFFFFFFFFFFFFFFFFFFFFFFFFFFFFFFFFF AND PUSH4 0x95D89B41 PUSH1 0x40 MLOAD DUP2 PUSH4 0xFFFFFFFF AND PUSH1 0xE0 SHL DUP2 MSTORE PUSH1 0x4 ADD PUSH1 0x0 PUSH1 0x40 MLOAD DUP1 DUP4 SUB DUP2 DUP7 GAS STATICCALL SWAP3 POP POP POP DUP1 ISZERO PUSH2 0x6AB JUMPI POP PUSH1 0x40 MLOAD RETURNDATASIZE PUSH1 0x0 DUP3 RETURNDATACOPY RETURNDATASIZE PUSH1 0x1F NOT PUSH1 0x1F DUP3 ADD AND DUP3 ADD DUP1 PUSH1 0x40 MSTORE POP DUP2 ADD SWAP1 PUSH2 0x6A8 SWAP2 SWAP1 PUSH2 0x1A45 JUMP JUMPDEST PUSH1 0x1 JUMPDEST PUSH2 0x6F2 JUMPI PUSH1 0x40 MLOAD DUP1 PUSH1 0x40 ADD PUSH1 0x40 MSTORE DUP1 PUSH1 0x4 DUP2 MSTORE PUSH1 0x20 ADD PUSH32 0x44454D4F00000000000000000000000000000000000000000000000000000000 DUP2 MSTORE POP DUP2 PUSH1 0x20 ADD DUP2 SWAP1 MSTORE POP PUSH2 0x6FD JUMP JUMPDEST DUP1 DUP3 PUSH1 0x20 ADD DUP2 SWAP1 MSTORE POP POP JUMPDEST DUP3 PUSH20 0xFFFFFFFFFFFFFFFFFFFFFFFFFFFFFFFFFFFFFFFF AND PUSH4 0x313CE567 PUSH1 0x40 MLOAD DUP2 PUSH4 0xFFFFFFFF AND PUSH1 0xE0 SHL DUP2 MSTORE PUSH1 0x4 ADD PUSH1 0x20 PUSH1 0x40 MLOAD DUP1 DUP4 SUB DUP2 DUP7 GAS STATICCALL SWAP3 POP POP POP DUP1 ISZERO PUSH2 0x765 JUMPI POP PUSH1 0x40 MLOAD RETURNDATASIZE PUSH1 0x1F NOT PUSH1 0x1F DUP3 ADD AND DUP3 ADD DUP1 PUSH1 0x40 MSTORE POP DUP2 ADD SWAP1 PUSH2 0x762 SWAP2 SWAP1 PUSH2 0x1ABA JUMP JUMPDEST PUSH1 0x1 JUMPDEST PUSH2 0x781 JUMPI PUSH1 0x12 DUP2 PUSH1 0x40 ADD SWAP1 PUSH1 0xFF AND SWAP1 DUP2 PUSH1 0xFF AND DUP2 MSTORE POP POP PUSH2 0x795 JUMP JUMPDEST DUP1 DUP3 PUSH1 0x40 ADD SWAP1 PUSH1 0xFF AND SWAP1 DUP2 PUSH1 0xFF AND DUP2 MSTORE POP POP POP JUMPDEST DUP3 PUSH20 0xFFFFFFFFFFFFFFFFFFFFFFFFFFFFFFFFFFFFFFFF AND PUSH4 0x18160DDD PUSH1 0x40 MLOAD DUP2 PUSH4 0xFFFFFFFF AND PUSH1 0xE0 SHL DUP2 MSTORE PUSH1 0x4 ADD PUSH1 0x20 PUSH1 0x40 MLOAD DUP1 DUP4 SUB DUP2 DUP7 GAS STATICCALL SWAP3 POP POP POP DUP1 ISZERO PUSH2 0x7FD JUMPI POP PUSH1 0x40 MLOAD RETURNDATASIZE PUSH1 0x1F NOT PUSH1 0x1F DUP3 ADD AND DUP3 ADD DUP1 PUSH1 0x40 MSTORE POP DUP2 ADD SWAP1 PUSH2 0x7FA SWAP2 SWAP1 PUSH2 0x1B13 JUMP JUMPDEST PUSH1 0x1 JUMPDEST PUSH2 0x82B JUMPI PUSH10 0xD3C21BCECCEDA1000000 DUP2 PUSH1 0x60 ADD DUP2 DUP2 MSTORE POP POP PUSH1 0x1 DUP2 PUSH1 0xA0 ADD SWAP1 ISZERO ISZERO SWAP1 DUP2 ISZERO ISZERO DUP2 MSTORE POP POP PUSH2 0x848 JUMP JUMPDEST DUP1 DUP3 PUSH1 0x60 ADD DUP2 DUP2 MSTORE POP POP PUSH1 0x1 DUP3 PUSH1 0xA0 ADD SWAP1 ISZERO ISZERO SWAP1 DUP2 ISZERO ISZERO DUP2 MSTORE POP POP POP JUMPDEST DUP3 PUSH20 0xFFFFFFFFFFFFFFFFFFFFFFFFFFFFFFFFFFFFFFFF AND PUSH4 0x8DA5CB5B PUSH1 0x40 MLOAD DUP2 PUSH4 0xFFFFFFFF AND PUSH1 0xE0 SHL DUP2 MSTORE PUSH1 0x4 ADD PUSH1 0x20 PUSH1 0x40 MLOAD DUP1 DUP4 SUB DUP2 DUP7 GAS STATICCALL SWAP3 POP POP POP DUP1 ISZERO PUSH2 0x8B0 JUMPI POP PUSH1 0x40 MLOAD RETURNDATASIZE PUSH1 0x1F NOT PUSH1 0x1F DUP3 ADD AND DUP3 ADD DUP1 PUSH1 0x40 MSTORE POP DUP2 ADD SWAP1 PUSH2 0x8AD SWAP2 SWAP1 PUSH2 0x1B55 JUMP JUMPDEST PUSH1 0x1 JUMPDEST PUSH2 0x905 JUMPI PUSH20 0xF39FD6E51AAD88F6F4CE6AB8827279CFFFB92266 DUP2 PUSH1 0x80 ADD SWAP1 PUSH20 0xFFFFFFFFFFFFFFFFFFFFFFFFFFFFFFFFFFFFFFFF AND SWAP1 DUP2 PUSH20 0xFFFFFFFFFFFFFFFFFFFFFFFFFFFFFFFFFFFFFFFF AND DUP2 MSTORE POP POP PUSH2 0x93F JUMP JUMPDEST DUP1 DUP3 PUSH1 0x80 ADD SWAP1 PUSH20 0xFFFFFFFFFFFFFFFFFFFFFFFFFFFFFFFFFFFFFFFF AND SWAP1 DUP2 PUSH20 0xFFFFFFFFFFFFFFFFFFFFFFFFFFFFFFFFFFFFFFFF AND DUP2 MSTORE POP POP POP JUMPDEST DUP1 PUSH1 0x2 PUSH1 0x0 DUP6 PUSH20 0xFFFFFFFFFFFFFFFFFFFFFFFFFFFFFFFFFFFFFFFF AND PUSH20 0xFFFFFFFFFFFFFFFFFFFFFFFFFFFFFFFFFFFFFFFF AND DUP2 MSTORE PUSH1 0x20 ADD SWAP1 DUP2 MSTORE PUSH1 0x20 ADD PUSH1 0x0 KECCAK256 PUSH1 0x0 DUP3 ADD MLOAD DUP2 PUSH1 0x0 ADD SWAP1 DUP2 PUSH2 0x994 SWAP2 SWAP1 PUSH2 0x1D2E JUMP JUMPDEST POP PUSH1 0x20 DUP3 ADD MLOAD DUP2 PUSH1 0x1 ADD SWAP1 DUP2 PUSH2 0x9AA SWAP2 SWAP1 PUSH2 0x1D2E JUMP JUMPDEST POP PUSH1 0x40 DUP3 ADD MLOAD DUP2 PUSH1 0x2 ADD PUSH1 0x0 PUSH2 0x100 EXP DUP2 SLOAD DUP2 PUSH1 0xFF MUL NOT AND SWAP1 DUP4 PUSH1 0xFF AND MUL OR SWAP1 SSTORE POP PUSH1 0x60 DUP3 ADD MLOAD DUP2 PUSH1 0x3 ADD SSTORE PUSH1 0x80 DUP3 ADD MLOAD DUP2 PUSH1 0x4 ADD PUSH1 0x0 PUSH2 0x100 EXP DUP2 SLOAD DUP2 PUSH20 0xFFFFFFFFFFFFFFFFFFFFFFFFFFFFFFFFFFFFFFFF MUL NOT AND SWAP1 DUP4 PUSH20 0xFFFFFFFFFFFFFFFFFFFFFFFFFFFFFFFFFFFFFFFF AND MUL OR SWAP1 SSTORE POP PUSH1 0xA0 DUP3 ADD MLOAD DUP2 PUSH1 0x4 ADD PUSH1 0x14 PUSH2 0x100 EXP DUP2 SLOAD DUP2 PUSH1 0xFF MUL NOT AND SWAP1 DUP4 ISZERO ISZERO MUL OR SWAP1 SSTORE POP SWAP1 POP POP CALLER PUSH20 0xFFFFFFFFFFFFFFFFFFFFFFFFFFFFFFFFFFFFFFFF AND DUP4 PUSH20 0xFFFFFFFFFFFFFFFFFFFFFFFFFFFFFFFFFFFFFFFF AND PUSH32 0x35FCE28F18B72741A71B6649C6C259476BB27D9AC27B2EBAD4645C44AE7616E3 TIMESTAMP PUSH1 0x40 MLOAD PUSH2 0xA9D SWAP2 SWAP1 PUSH2 0x1538 JUMP JUMPDEST PUSH1 0x40 MLOAD DUP1 SWAP2 SUB SWAP1 LOG3 DUP1 SWAP2 POP POP PUSH2 0xAB1 PUSH2 0x1043 JUMP JUMPDEST SWAP2 SWAP1 POP JUMP JUMPDEST PUSH2 0xABE PUSH2 0x104C JUMP JUMPDEST PUSH2 0xAC8 PUSH1 0x0 PUSH2 0x10CA JUMP JUMPDEST JUMP JUMPDEST PUSH1 0x0 DUP1 PUSH1 0x0 SWAP1 SLOAD SWAP1 PUSH2 0x100 EXP SWAP1 DIV PUSH20 0xFFFFFFFFFFFFFFFFFFFFFFFFFFFFFFFFFFFFFFFF AND SWAP1 POP SWAP1 JUMP JUMPDEST PUSH1 0x0 DUP1 PUSH1 0x3 PUSH1 0x0 DUP5 PUSH20 0xFFFFFFFFFFFFFFFFFFFFFFFFFFFFFFFFFFFFFFFF AND PUSH20 0xFFFFFFFFFFFFFFFFFFFFFFFFFFFFFFFFFFFFFFFF AND DUP2 MSTORE PUSH1 0x20 ADD SWAP1 DUP2 MSTORE PUSH1 0x20 ADD PUSH1 0x0 KECCAK256 PUSH1 0x40 MLOAD DUP1 PUSH1 0xC0 ADD PUSH1 0x40 MSTORE SWAP1 DUP2 PUSH1 0x0 DUP3 ADD PUSH1 0x0 SWAP1 SLOAD SWAP1 PUSH2 0x100 EXP SWAP1 DIV PUSH1 0xFF AND ISZERO ISZERO ISZERO ISZERO DUP2 MSTORE PUSH1 0x20 ADD PUSH1 0x0 DUP3 ADD PUSH1 0x1 SWAP1 SLOAD SWAP1 PUSH2 0x100 EXP SWAP1 DIV PUSH1 0xFF AND ISZERO ISZERO ISZERO ISZERO DUP2 MSTORE PUSH1 0x20 ADD PUSH1 0x0 DUP3 ADD PUSH1 0x2 SWAP1 SLOAD SWAP1 PUSH2 0x100 EXP SWAP1 DIV PUSH1 0xFF AND ISZERO ISZERO ISZERO ISZERO DUP2 MSTORE PUSH1 0x20 ADD PUSH1 0x0 DUP3 ADD PUSH1 0x3 SWAP1 SLOAD SWAP1 PUSH2 0x100 EXP SWAP1 DIV PUSH1 0xFF AND ISZERO ISZERO ISZERO ISZERO DUP2 MSTORE PUSH1 0x20 ADD PUSH1 0x0 DUP3 ADD PUSH1 0x4 SWAP1 SLOAD SWAP1 PUSH2 0x100 EXP SWAP1 DIV PUSH1 0xFF AND ISZERO ISZERO ISZERO ISZERO DUP2 MSTORE PUSH1 0x20 ADD PUSH1 0x0 DUP3 ADD PUSH1 0x5 SWAP1 SLOAD SWAP1 PUSH2 0x100 EXP SWAP1 DIV PUSH1 0xFF AND ISZERO ISZERO ISZERO ISZERO DUP2 MSTORE POP POP SWAP1 POP PUSH1 0x0 DUP2 PUSH1 0x0 ADD MLOAD DUP1 ISZERO PUSH2 0xBF9 JUMPI POP DUP2 PUSH1 0xA0 ADD MLOAD ISZERO JUMPDEST ISZERO PUSH2 0xC0E JUMPI PUSH1 0x14 DUP2 PUSH2 0xC0B SWAP2 SWAP1 PUSH2 0x1E2F JUMP JUMPDEST SWAP1 POP JUMPDEST DUP2 PUSH1 0x20 ADD MLOAD ISZERO PUSH2 0xC28 JUMPI PUSH1 0x19 DUP2 PUSH2 0xC25 SWAP2 SWAP1 PUSH2 0x1E2F JUMP JUMPDEST SWAP1 POP JUMPDEST DUP2 PUSH1 0x60 ADD MLOAD ISZERO PUSH2 0xC42 JUMPI PUSH1 0xF DUP2 PUSH2 0xC3F SWAP2 SWAP1 PUSH2 0x1E2F JUMP JUMPDEST SWAP1 POP JUMPDEST DUP2 PUSH1 0x80 ADD MLOAD ISZERO PUSH2 0xC5C JUMPI PUSH1 0x1E DUP2 PUSH2 0xC59 SWAP2 SWAP1 PUSH2 0x1E2F JUMP JUMPDEST SWAP1 POP JUMPDEST DUP2 PUSH1 0x40 ADD MLOAD PUSH2 0xC75 JUMPI PUSH1 0xA DUP2 PUSH2 0xC72 SWAP2 SWAP1 PUSH2 0x1E2F JUMP JUMPDEST SWAP1 POP JUMPDEST DUP1 SWAP3 POP POP POP SWAP2 SWAP1 POP JUMP JUMPDEST PUSH1 0x60 PUSH2 0xC89 PUSH2 0xFF4 JUMP JUMPDEST PUSH1 0xA DUP4 DUP4 SWAP1 POP GT ISZERO PUSH2 0xCD0 JUMPI PUSH1 0x40 MLOAD PUSH32 0x8C379A000000000000000000000000000000000000000000000000000000000 DUP2 MSTORE PUSH1 0x4 ADD PUSH2 0xCC7 SWAP1 PUSH2 0x1ED5 JUMP JUMPDEST PUSH1 0x40 MLOAD DUP1 SWAP2 SUB SWAP1 REVERT JUMPDEST PUSH1 0x0 DUP4 DUP4 SWAP1 POP PUSH8 0xFFFFFFFFFFFFFFFF DUP2 GT ISZERO PUSH2 0xCEF JUMPI PUSH2 0xCEE PUSH2 0x1929 JUMP JUMPDEST JUMPDEST PUSH1 0x40 MLOAD SWAP1 DUP1 DUP3 MSTORE DUP1 PUSH1 0x20 MUL PUSH1 0x20 ADD DUP3 ADD PUSH1 0x40 MSTORE DUP1 ISZERO PUSH2 0xD28 JUMPI DUP2 PUSH1 0x20 ADD JUMPDEST PUSH2 0xD15 PUSH2 0x11D8 JUMP JUMPDEST DUP2 MSTORE PUSH1 0x20 ADD SWAP1 PUSH1 0x1 SWAP1 SUB SWAP1 DUP2 PUSH2 0xD0D JUMPI SWAP1 POP JUMPDEST POP SWAP1 POP PUSH1 0x0 JUMPDEST DUP5 DUP5 SWAP1 POP DUP2 LT ISZERO PUSH2 0xE12 JUMPI ADDRESS PUSH20 0xFFFFFFFFFFFFFFFFFFFFFFFFFFFFFFFFFFFFFFFF AND PUSH4 0x59A573B3 DUP7 DUP7 DUP5 DUP2 DUP2 LT PUSH2 0xD68 JUMPI PUSH2 0xD67 PUSH2 0x1EF5 JUMP JUMPDEST JUMPDEST SWAP1 POP PUSH1 0x20 MUL ADD PUSH1 0x20 DUP2 ADD SWAP1 PUSH2 0xD7D SWAP2 SWAP1 PUSH2 0x129B JUMP JUMPDEST PUSH1 0x40 MLOAD DUP3 PUSH4 0xFFFFFFFF AND PUSH1 0xE0 SHL DUP2 MSTORE PUSH1 0x4 ADD PUSH2 0xD99 SWAP2 SWAP1 PUSH2 0x150E JUMP JUMPDEST PUSH1 0x0 PUSH1 0x40 MLOAD DUP1 DUP4 SUB DUP2 PUSH1 0x0 DUP8 GAS CALL ISZERO DUP1 ISZERO PUSH2 0xDB8 JUMPI RETURNDATASIZE PUSH1 0x0 DUP1 RETURNDATACOPY RETURNDATASIZE PUSH1 0x0 REVERT JUMPDEST POP POP POP POP PUSH1 0x40 MLOAD RETURNDATASIZE PUSH1 0x0 DUP3 RETURNDATACOPY RETURNDATASIZE PUSH1 0x1F NOT PUSH1 0x1F DUP3 ADD AND DUP3 ADD DUP1 PUSH1 0x40 MSTORE POP DUP2 ADD SWAP1 PUSH2 0xDE1 SWAP2 SWAP1 PUSH2 0x201B JUMP JUMPDEST DUP3 DUP3 DUP2 MLOAD DUP2 LT PUSH2 0xDF4 JUMPI PUSH2 0xDF3 PUSH2 0x1EF5 JUMP JUMPDEST JUMPDEST PUSH1 0x20 MUL PUSH1 0x20 ADD ADD DUP2 SWAP1 MSTORE POP DUP1 DUP1 PUSH2 0xE0A SWAP1 PUSH2 0x2064 JUMP JUMPDEST SWAP2 POP POP PUSH2 0xD2E JUMP JUMPDEST POP DUP1 SWAP2 POP POP PUSH2 0xE1F PUSH2 0x1043 JUMP JUMPDEST SWAP3 SWAP2 POP POP JUMP JUMPDEST PUSH2 0xE2D PUSH2 0x104C JUMP JUMPDEST PUSH1 0x40 MLOAD DUP1 PUSH1 0xC0 ADD PUSH1 0x40 MSTORE DUP1 DUP8 ISZERO ISZERO DUP2 MSTORE PUSH1 0x20 ADD DUP7 ISZERO ISZERO DUP2 MSTORE PUSH1 0x20 ADD DUP6 ISZERO ISZERO DUP2 MSTORE PUSH1 0x20 ADD DUP5 ISZERO ISZERO DUP2 MSTORE PUSH1 0x20 ADD DUP4 ISZERO ISZERO DUP2 MSTORE PUSH1 0x20 ADD DUP3 ISZERO ISZERO DUP2 MSTORE POP PUSH1 0x3 PUSH1 0x0 DUP10 PUSH20 0xFFFFFFFFFFFFFFFFFFFFFFFFFFFFFFFFFFFFFFFF AND PUSH20 0xFFFFFFFFFFFFFFFFFFFFFFFFFFFFFFFFFFFFFFFF AND DUP2 MSTORE PUSH1 0x20 ADD SWAP1 DUP2 MSTORE PUSH1 0x20 ADD PUSH1 0x0 KECCAK256 PUSH1 0x0 DUP3 ADD MLOAD DUP2 PUSH1 0x0 ADD PUSH1 0x0 PUSH2 0x100 EXP DUP2 SLOAD DUP2 PUSH1 0xFF MUL NOT AND SWAP1 DUP4 ISZERO ISZERO MUL OR SWAP1 SSTORE POP PUSH1 0x20 DUP3 ADD MLOAD DUP2 PUSH1 0x0 ADD PUSH1 0x1 PUSH2 0x100 EXP DUP2 SLOAD DUP2 PUSH1 0xFF MUL NOT AND SWAP1 DUP4 ISZERO ISZERO MUL OR SWAP1 SSTORE POP PUSH1 0x40 DUP3 ADD MLOAD DUP2 PUSH1 0x0 ADD PUSH1 0x2 PUSH2 0x100 EXP DUP2 SLOAD DUP2 PUSH1 0xFF MUL NOT AND SWAP1 DUP4 ISZERO ISZERO MUL OR SWAP1 SSTORE POP PUSH1 0x60 DUP3 ADD MLOAD DUP2 PUSH1 0x0 ADD PUSH1 0x3 PUSH2 0x100 EXP DUP2 SLOAD DUP2 PUSH1 0xFF MUL NOT AND SWAP1 DUP4 ISZERO ISZERO MUL OR SWAP1 SSTORE POP PUSH1 0x80 DUP3 ADD MLOAD DUP2 PUSH1 0x0 ADD PUSH1 0x4 PUSH2 0x100 EXP DUP2 SLOAD DUP2 PUSH1 0xFF MUL NOT AND SWAP1 DUP4 ISZERO ISZERO MUL OR SWAP1 SSTORE POP PUSH1 0xA0 DUP3 ADD MLOAD DUP2 PUSH1 0x0 ADD PUSH1 0x5 PUSH2 0x100 EXP DUP2 SLOAD DUP2 PUSH1 0xFF MUL NOT AND SWAP1 DUP4 ISZERO ISZERO MUL OR SWAP1 SSTORE POP SWAP1 POP POP POP POP POP POP POP POP POP JUMP JUMPDEST PUSH2 0xF79 PUSH2 0x104C JUMP JUMPDEST PUSH1 0x0 PUSH20 0xFFFFFFFFFFFFFFFFFFFFFFFFFFFFFFFFFFFFFFFF AND DUP2 PUSH20 0xFFFFFFFFFFFFFFFFFFFFFFFFFFFFFFFFFFFFFFFF AND SUB PUSH2 0xFE8 JUMPI PUSH1 0x40 MLOAD PUSH32 0x8C379A000000000000000000000000000000000000000000000000000000000 DUP2 MSTORE PUSH1 0x4 ADD PUSH2 0xFDF SWAP1 PUSH2 0x211E JUMP JUMPDEST PUSH1 0x40 MLOAD DUP1 SWAP2 SUB SWAP1 REVERT JUMPDEST PUSH2 0xFF1 DUP2 PUSH2 0x10CA JUMP JUMPDEST POP JUMP JUMPDEST PUSH1 0x2 PUSH1 0x1 SLOAD SUB PUSH2 0x1039 JUMPI PUSH1 0x40 MLOAD PUSH32 0x8C379A000000000000000000000000000000000000000000000000000000000 DUP2 MSTORE PUSH1 0x4 ADD PUSH2 0x1030 SWAP1 PUSH2 0x218A JUMP JUMPDEST PUSH1 0x40 MLOAD DUP1 SWAP2 SUB SWAP1 REVERT JUMPDEST PUSH1 0x2 PUSH1 0x1 DUP2 SWAP1 SSTORE POP JUMP JUMPDEST PUSH1 0x1 DUP1 DUP2 SWAP1 SSTORE POP JUMP JUMPDEST PUSH2 0x1054 PUSH2 0x118E JUMP JUMPDEST PUSH20 0xFFFFFFFFFFFFFFFFFFFFFFFFFFFFFFFFFFFFFFFF AND PUSH2 0x1072 PUSH2 0xACA JUMP JUMPDEST PUSH20 0xFFFFFFFFFFFFFFFFFFFFFFFFFFFFFFFFFFFFFFFF AND EQ PUSH2 0x10C8 JUMPI PUSH1 0x40 MLOAD PUSH32 0x8C379A000000000000000000000000000000000000000000000000000000000 DUP2 MSTORE PUSH1 0x4 ADD PUSH2 0x10BF SWAP1 PUSH2 0x21F6 JUMP JUMPDEST PUSH1 0x40 MLOAD DUP1 SWAP2 SUB SWAP1 REVERT JUMPDEST JUMP JUMPDEST PUSH1 0x0 DUP1 PUSH1 0x0 SWAP1 SLOAD SWAP1 PUSH2 0x100 EXP SWAP1 DIV PUSH20 0xFFFFFFFFFFFFFFFFFFFFFFFFFFFFFFFFFFFFFFFF AND SWAP1 POP DUP2 PUSH1 0x0 DUP1 PUSH2 0x100 EXP DUP2 SLOAD DUP2 PUSH20 0xFFFFFFFFFFFFFFFFFFFFFFFFFFFFFFFFFFFFFFFF MUL NOT AND SWAP1 DUP4 PUSH20 0xFFFFFFFFFFFFFFFFFFFFFFFFFFFFFFFFFFFFFFFF AND MUL OR SWAP1 SSTORE POP DUP2 PUSH20 0xFFFFFFFFFFFFFFFFFFFFFFFFFFFFFFFFFFFFFFFF AND DUP2 PUSH20 0xFFFFFFFFFFFFFFFFFFFFFFFFFFFFFFFFFFFFFFFF AND PUSH32 0x8BE0079C531659141344CD1FD0A4F28419497F9722A3DAAFE3B4186F6B6457E0 PUSH1 0x40 MLOAD PUSH1 0x40 MLOAD DUP1 SWAP2 SUB SWAP1 LOG3 POP POP JUMP JUMPDEST PUSH1 0x0 CALLER SWAP1 POP SWAP1 JUMP JUMPDEST PUSH1 0x40 MLOAD DUP1 PUSH1 0xC0 ADD PUSH1 0x40 MSTORE DUP1 PUSH1 0x0 ISZERO ISZERO DUP2 MSTORE PUSH1 0x20 ADD PUSH1 0x0 ISZERO ISZERO DUP2 MSTORE PUSH1 0x20 ADD PUSH1 0x0 ISZERO ISZERO DUP2 MSTORE PUSH1 0x20 ADD PUSH1 0x0 ISZERO ISZERO DUP2 MSTORE PUSH1 0x20 ADD PUSH1 0x0 ISZERO ISZERO DUP2 MSTORE PUSH1 0x20 ADD PUSH1 0x0 ISZERO ISZERO DUP2 MSTORE POP SWAP1 JUMP JUMPDEST PUSH1 0x40 MLOAD DUP1 PUSH1 0xC0 ADD PUSH1 0x40 MSTORE DUP1 PUSH1 0x60 DUP2 MSTORE PUSH1 0x20 ADD PUSH1 0x60 DUP2 MSTORE PUSH1 0x20 ADD PUSH1 0x0 PUSH1 0xFF AND DUP2 MSTORE PUSH1 0x20 ADD PUSH1 0x0 DUP2 MSTORE PUSH1 0x20 ADD PUSH1 0x0 PUSH20 0xFFFFFFFFFFFFFFFFFFFFFFFFFFFFFFFFFFFFFFFF AND DUP2 MSTORE PUSH1 0x20 ADD PUSH1 0x0 ISZERO ISZERO DUP2 MSTORE POP SWAP1 JUMP JUMPDEST PUSH1 0x0 PUSH1 0x40 MLOAD SWAP1 POP SWAP1 JUMP JUMPDEST PUSH1 0x0 DUP1 REVERT JUMPDEST PUSH1 0x0 DUP1 REVERT JUMPDEST PUSH1 0x0 PUSH20 0xFFFFFFFFFFFFFFFFFFFFFFFFFFFFFFFFFFFFFFFF DUP3 AND SWAP1 POP SWAP2 SWAP1 POP JUMP JUMPDEST PUSH1 0x0 PUSH2 0x1268 DUP3 PUSH2 0x123D JUMP JUMPDEST SWAP1 POP SWAP2 SWAP1 POP JUMP JUMPDEST PUSH2 0x1278 DUP2 PUSH2 0x125D JUMP JUMPDEST DUP2 EQ PUSH2 0x1283 JUMPI PUSH1 0x0 DUP1 REVERT JUMPDEST POP JUMP JUMPDEST PUSH1 0x0 DUP2 CALLDATALOAD SWAP1 POP PUSH2 0x1295 DUP2 PUSH2 0x126F JUMP JUMPDEST SWAP3 SWAP2 POP POP JUMP JUMPDEST PUSH1 0x0 PUSH1 0x20 DUP3 DUP5 SUB SLT ISZERO PUSH2 0x12B1 JUMPI PUSH2 0x12B0 PUSH2 0x1233 JUMP JUMPDEST JUMPDEST PUSH1 0x0 PUSH2 0x12BF DUP5 DUP3 DUP6 ADD PUSH2 0x1286 JUMP JUMPDEST SWAP2 POP POP SWAP3 SWAP2 POP POP JUMP JUMPDEST PUSH1 0x0 DUP2 ISZERO ISZERO SWAP1 POP SWAP2 SWAP1 POP JUMP JUMPDEST PUSH2 0x12DD DUP2 PUSH2 0x12C8 JUMP JUMPDEST DUP3 MSTORE POP POP JUMP JUMPDEST PUSH1 0xC0 DUP3 ADD PUSH1 0x0 DUP3 ADD MLOAD PUSH2 0x12F9 PUSH1 0x0 DUP6 ADD DUP3 PUSH2 0x12D4 JUMP JUMPDEST POP PUSH1 0x20 DUP3 ADD MLOAD PUSH2 0x130C PUSH1 0x20 DUP6 ADD DUP3 PUSH2 0x12D4 JUMP JUMPDEST POP PUSH1 0x40 DUP3 ADD MLOAD PUSH2 0x131F PUSH1 0x40 DUP6 ADD DUP3 PUSH2 0x12D4 JUMP JUMPDEST POP PUSH1 0x60 DUP3 ADD MLOAD PUSH2 0x1332 PUSH1 0x60 DUP6 ADD DUP3 PUSH2 0x12D4 JUMP JUMPDEST POP PUSH1 0x80 DUP3 ADD MLOAD PUSH2 0x1345 PUSH1 0x80 DUP6 ADD DUP3 PUSH2 0x12D4 JUMP JUMPDEST POP PUSH1 0xA0 DUP3 ADD MLOAD PUSH2 0x1358 PUSH1 0xA0 DUP6 ADD DUP3 PUSH2 0x12D4 JUMP JUMPDEST POP POP POP POP JUMP JUMPDEST PUSH1 0x0 PUSH1 0xC0 DUP3 ADD SWAP1 POP PUSH2 0x1373 PUSH1 0x0 DUP4 ADD DUP5 PUSH2 0x12E3 JUMP JUMPDEST SWAP3 SWAP2 POP POP JUMP JUMPDEST PUSH1 0x0 DUP2 MLOAD SWAP1 POP SWAP2 SWAP1 POP JUMP JUMPDEST PUSH1 0x0 DUP3 DUP3 MSTORE PUSH1 0x20 DUP3 ADD SWAP1 POP SWAP3 SWAP2 POP POP JUMP JUMPDEST PUSH1 0x0 JUMPDEST DUP4 DUP2 LT ISZERO PUSH2 0x13B3 JUMPI DUP1 DUP3 ADD MLOAD DUP2 DUP5 ADD MSTORE PUSH1 0x20 DUP2 ADD SWAP1 POP PUSH2 0x1398 JUMP JUMPDEST PUSH1 0x0 DUP5 DUP5 ADD MSTORE POP POP POP POP JUMP JUMPDEST PUSH1 0x0 PUSH1 0x1F NOT PUSH1 0x1F DUP4 ADD AND SWAP1 POP SWAP2 SWAP1 POP JUMP JUMPDEST PUSH1 0x0 PUSH2 0x13DB DUP3 PUSH2 0x1379 JUMP JUMPDEST PUSH2 0x13E5 DUP2 DUP6 PUSH2 0x1384 JUMP JUMPDEST SWAP4 POP PUSH2 0x13F5 DUP2 DUP6 PUSH1 0x20 DUP7 ADD PUSH2 0x1395 JUMP JUMPDEST PUSH2 0x13FE DUP2 PUSH2 0x13BF JUMP JUMPDEST DUP5 ADD SWAP2 POP POP SWAP3 SWAP2 POP POP JUMP JUMPDEST PUSH1 0x0 PUSH1 0xFF DUP3 AND SWAP1 POP SWAP2 SWAP1 POP JUMP JUMPDEST PUSH2 0x141F DUP2 PUSH2 0x1409 JUMP JUMPDEST DUP3 MSTORE POP POP JUMP JUMPDEST PUSH1 0x0 DUP2 SWAP1 POP SWAP2 SWAP1 POP JUMP JUMPDEST PUSH2 0x1438 DUP2 PUSH2 0x1425 JUMP JUMPDEST DUP3 MSTORE POP POP JUMP JUMPDEST PUSH2 0x1447 DUP2 PUSH2 0x125D JUMP JUMPDEST DUP3 MSTORE POP POP JUMP JUMPDEST PUSH1 0x0 PUSH1 0xC0 DUP4 ADD PUSH1 0x0 DUP4 ADD MLOAD DUP5 DUP3 SUB PUSH1 0x0 DUP7 ADD MSTORE PUSH2 0x146A DUP3 DUP3 PUSH2 0x13D0 JUMP JUMPDEST SWAP2 POP POP PUSH1 0x20 DUP4 ADD MLOAD DUP5 DUP3 SUB PUSH1 0x20 DUP7 ADD MSTORE PUSH2 0x1484 DUP3 DUP3 PUSH2 0x13D0 JUMP JUMPDEST SWAP2 POP POP PUSH1 0x40 DUP4 ADD MLOAD PUSH2 0x1499 PUSH1 0x40 DUP7 ADD DUP3 PUSH2 0x1416 JUMP JUMPDEST POP PUSH1 0x60 DUP4 ADD MLOAD PUSH2 0x14AC PUSH1 0x60 DUP7 ADD DUP3 PUSH2 0x142F JUMP JUMPDEST POP PUSH1 0x80 DUP4 ADD MLOAD PUSH2 0x14BF PUSH1 0x80 DUP7 ADD DUP3 PUSH2 0x143E JUMP JUMPDEST POP PUSH1 0xA0 DUP4 ADD MLOAD PUSH2 0x14D2 PUSH1 0xA0 DUP7 ADD DUP3 PUSH2 0x12D4 JUMP JUMPDEST POP DUP1 SWAP2 POP POP SWAP3 SWAP2 POP POP JUMP JUMPDEST PUSH1 0x0 PUSH1 0x20 DUP3 ADD SWAP1 POP DUP2 DUP2 SUB PUSH1 0x0 DUP4 ADD MSTORE PUSH2 0x14F7 DUP2 DUP5 PUSH2 0x144D JUMP JUMPDEST SWAP1 POP SWAP3 SWAP2 POP POP JUMP JUMPDEST PUSH2 0x1508 DUP2 PUSH2 0x125D JUMP JUMPDEST DUP3 MSTORE POP POP JUMP JUMPDEST PUSH1 0x0 PUSH1 0x20 DUP3 ADD SWAP1 POP PUSH2 0x1523 PUSH1 0x0 DUP4 ADD DUP5 PUSH2 0x14FF JUMP JUMPDEST SWAP3 SWAP2 POP POP JUMP JUMPDEST PUSH2 0x1532 DUP2 PUSH2 0x1425 JUMP JUMPDEST DUP3 MSTORE POP POP JUMP JUMPDEST PUSH1 0x0 PUSH1 0x20 DUP3 ADD SWAP1 POP PUSH2 0x154D PUSH1 0x0 DUP4 ADD DUP5 PUSH2 0x1529 JUMP JUMPDEST SWAP3 SWAP2 POP POP JUMP JUMPDEST PUSH1 0x0 DUP1 REVERT JUMPDEST PUSH1 0x0 DUP1 REVERT JUMPDEST PUSH1 0x0 DUP1 REVERT JUMPDEST PUSH1 0x0 DUP1 DUP4 PUSH1 0x1F DUP5 ADD SLT PUSH2 0x1578 JUMPI PUSH2 0x1577 PUSH2 0x1553 JUMP JUMPDEST JUMPDEST DUP3 CALLDATALOAD SWAP1 POP PUSH8 0xFFFFFFFFFFFFFFFF DUP2 GT ISZERO PUSH2 0x1595 JUMPI PUSH2 0x1594 PUSH2 0x1558 JUMP JUMPDEST JUMPDEST PUSH1 0x20 DUP4 ADD SWAP2 POP DUP4 PUSH1 0x20 DUP3 MUL DUP4 ADD GT ISZERO PUSH2 0x15B1 JUMPI PUSH2 0x15B0 PUSH2 0x155D JUMP JUMPDEST JUMPDEST SWAP3 POP SWAP3 SWAP1 POP JUMP JUMPDEST PUSH1 0x0 DUP1 PUSH1 0x20 DUP4 DUP6 SUB SLT ISZERO PUSH2 0x15CF JUMPI PUSH2 0x15CE PUSH2 0x1233 JUMP JUMPDEST JUMPDEST PUSH1 0x0 DUP4 ADD CALLDATALOAD PUSH8 0xFFFFFFFFFFFFFFFF DUP2 GT ISZERO PUSH2 0x15ED JUMPI PUSH2 0x15EC PUSH2 0x1238 JUMP JUMPDEST JUMPDEST PUSH2 0x15F9 DUP6 DUP3 DUP7 ADD PUSH2 0x1562 JUMP JUMPDEST SWAP3 POP SWAP3 POP POP SWAP3 POP SWAP3 SWAP1 POP JUMP JUMPDEST PUSH1 0x0 DUP2 MLOAD SWAP1 POP SWAP2 SWAP1 POP JUMP JUMPDEST PUSH1 0x0 DUP3 DUP3 MSTORE PUSH1 0x20 DUP3 ADD SWAP1 POP SWAP3 SWAP2 POP POP JUMP JUMPDEST PUSH1 0x0 DUP2 SWAP1 POP PUSH1 0x20 DUP3 ADD SWAP1 POP SWAP2 SWAP1 POP JUMP JUMPDEST PUSH1 0x0 PUSH1 0xC0 DUP4 ADD PUSH1 0x0 DUP4 ADD MLOAD DUP5 DUP3 SUB PUSH1 0x0 DUP7 ADD MSTORE PUSH2 0x164E DUP3 DUP3 PUSH2 0x13D0 JUMP JUMPDEST SWAP2 POP POP PUSH1 0x20 DUP4 ADD MLOAD DUP5 DUP3 SUB PUSH1 0x20 DUP7 ADD MSTORE PUSH2 0x1668 DUP3 DUP3 PUSH2 0x13D0 JUMP JUMPDEST SWAP2 POP POP PUSH1 0x40 DUP4 ADD MLOAD PUSH2 0x167D PUSH1 0x40 DUP7 ADD DUP3 PUSH2 0x1416 JUMP JUMPDEST POP PUSH1 0x60 DUP4 ADD MLOAD PUSH2 0x1690 PUSH1 0x60 DUP7 ADD DUP3 PUSH2 0x142F JUMP JUMPDEST POP PUSH1 0x80 DUP4 ADD MLOAD PUSH2 0x16A3 PUSH1 0x80 DUP7 ADD DUP3 PUSH2 0x143E JUMP JUMPDEST POP PUSH1 0xA0 DUP4 ADD MLOAD PUSH2 0x16B6 PUSH1 0xA0 DUP7 ADD DUP3 PUSH2 0x12D4 JUMP JUMPDEST POP DUP1 SWAP2 POP POP SWAP3 SWAP2 POP POP JUMP JUMPDEST PUSH1 0x0 PUSH2 0x16CD DUP4 DUP4 PUSH2 0x1631 JUMP JUMPDEST SWAP1 POP SWAP3 SWAP2 POP POP JUMP JUMPDEST PUSH1 0x0 PUSH1 0x20 DUP3 ADD SWAP1 POP SWAP2 SWAP1 POP JUMP JUMPDEST PUSH1 0x0 PUSH2 0x16ED DUP3 PUSH2 0x1605 JUMP JUMPDEST PUSH2 0x16F7 DUP2 DUP6 PUSH2 0x1610 JUMP JUMPDEST SWAP4 POP DUP4 PUSH1 0x20 DUP3 MUL DUP6 ADD PUSH2 0x1709 DUP6 PUSH2 0x1621 JUMP JUMPDEST DUP1 PUSH1 0x0 JUMPDEST DUP6 DUP2 LT ISZERO PUSH2 0x1745 JUMPI DUP5 DUP5 SUB DUP10 MSTORE DUP2 MLOAD PUSH2 0x1726 DUP6 DUP3 PUSH2 0x16C1 JUMP JUMPDEST SWAP5 POP PUSH2 0x1731 DUP4 PUSH2 0x16D5 JUMP JUMPDEST SWAP3 POP PUSH1 0x20 DUP11 ADD SWAP10 POP POP PUSH1 0x1 DUP2 ADD SWAP1 POP PUSH2 0x170D JUMP JUMPDEST POP DUP3 SWAP8 POP DUP8 SWAP6 POP POP POP POP POP POP SWAP3 SWAP2 POP POP JUMP JUMPDEST PUSH1 0x0 PUSH1 0x20 DUP3 ADD SWAP1 POP DUP2 DUP2 SUB PUSH1 0x0 DUP4 ADD MSTORE PUSH2 0x1771 DUP2 DUP5 PUSH2 0x16E2 JUMP JUMPDEST SWAP1 POP SWAP3 SWAP2 POP POP JUMP JUMPDEST PUSH2 0x1782 DUP2 PUSH2 0x12C8 JUMP JUMPDEST DUP2 EQ PUSH2 0x178D JUMPI PUSH1 0x0 DUP1 REVERT JUMPDEST POP JUMP JUMPDEST PUSH1 0x0 DUP2 CALLDATALOAD SWAP1 POP PUSH2 0x179F DUP2 PUSH2 0x1779 JUMP JUMPDEST SWAP3 SWAP2 POP POP JUMP JUMPDEST PUSH1 0x0 DUP1 PUSH1 0x0 DUP1 PUSH1 0x0 DUP1 PUSH1 0x0 PUSH1 0xE0 DUP9 DUP11 SUB SLT ISZERO PUSH2 0x17C4 JUMPI PUSH2 0x17C3 PUSH2 0x1233 JUMP JUMPDEST JUMPDEST PUSH1 0x0 PUSH2 0x17D2 DUP11 DUP3 DUP12 ADD PUSH2 0x1286 JUMP JUMPDEST SWAP8 POP POP PUSH1 0x20 PUSH2 0x17E3 DUP11 DUP3 DUP12 ADD PUSH2 0x1790 JUMP JUMPDEST SWAP7 POP POP PUSH1 0x40 PUSH2 0x17F4 DUP11 DUP3 DUP12 ADD PUSH2 0x1790 JUMP JUMPDEST SWAP6 POP POP PUSH1 0x60 PUSH2 0x1805 DUP11 DUP3 DUP12 ADD PUSH2 0x1790 JUMP JUMPDEST SWAP5 POP POP PUSH1 0x80 PUSH2 0x1816 DUP11 DUP3 DUP12 ADD PUSH2 0x1790 JUMP JUMPDEST SWAP4 POP POP PUSH1 0xA0 PUSH2 0x1827 DUP11 DUP3 DUP12 ADD PUSH2 0x1790 JUMP JUMPDEST SWAP3 POP POP PUSH1 0xC0 PUSH2 0x1838 DUP11 DUP3 DUP12 ADD PUSH2 0x1790 JUMP JUMPDEST SWAP2 POP POP SWAP3 SWAP6 SWAP9 SWAP2 SWAP5 SWAP8 POP SWAP3 SWAP6 POP JUMP JUMPDEST PUSH32 0x4E487B7100000000000000000000000000000000000000000000000000000000 PUSH1 0x0 MSTORE PUSH1 0x22 PUSH1 0x4 MSTORE PUSH1 0x24 PUSH1 0x0 REVERT JUMPDEST PUSH1 0x0 PUSH1 0x2 DUP3 DIV SWAP1 POP PUSH1 0x1 DUP3 AND DUP1 PUSH2 0x188E JUMPI PUSH1 0x7F DUP3 AND SWAP2 POP JUMPDEST PUSH1 0x20 DUP3 LT DUP2 SUB PUSH2 0x18A1 JUMPI PUSH2 0x18A0 PUSH2 0x1847 JUMP JUMPDEST JUMPDEST POP SWAP2 SWAP1 POP JUMP JUMPDEST PUSH1 0x0 DUP3 DUP3 MSTORE PUSH1 0x20 DUP3 ADD SWAP1 POP SWAP3 SWAP2 POP POP JUMP JUMPDEST PUSH32 0x496E76616C696420746F6B656E20616464726573730000000000000000000000 PUSH1 0x0 DUP3 ADD MSTORE POP JUMP JUMPDEST PUSH1 0x0 PUSH2 0x18EE PUSH1 0x15 DUP4 PUSH2 0x18A7 JUMP JUMPDEST SWAP2 POP PUSH2 0x18F9 DUP3 PUSH2 0x18B8 JUMP JUMPDEST PUSH1 0x20 DUP3 ADD SWAP1 POP SWAP2 SWAP1 POP JUMP JUMPDEST PUSH1 0x0 PUSH1 0x20 DUP3 ADD SWAP1 POP DUP2 DUP2 SUB PUSH1 0x0 DUP4 ADD MSTORE PUSH2 0x191D DUP2 PUSH2 0x18E1 JUMP JUMPDEST SWAP1 POP SWAP2 SWAP1 POP JUMP JUMPDEST PUSH1 0x0 DUP1 REVERT JUMPDEST PUSH32 0x4E487B7100000000000000000000000000000000000000000000000000000000 PUSH1 0x0 MSTORE PUSH1 0x41 PUSH1 0x4 MSTORE PUSH1 0x24 PUSH1 0x0 REVERT JUMPDEST PUSH2 0x1961 DUP3 PUSH2 0x13BF JUMP JUMPDEST DUP2 ADD DUP2 DUP2 LT PUSH8 0xFFFFFFFFFFFFFFFF DUP3 GT OR ISZERO PUSH2 0x1980 JUMPI PUSH2 0x197F PUSH2 0x1929 JUMP JUMPDEST JUMPDEST DUP1 PUSH1 0x40 MSTORE POP POP POP JUMP JUMPDEST PUSH1 0x0 PUSH2 0x1993 PUSH2 0x1229 JUMP JUMPDEST SWAP1 POP PUSH2 0x199F DUP3 DUP3 PUSH2 0x1958 JUMP JUMPDEST SWAP2 SWAP1 POP JUMP JUMPDEST PUSH1 0x0 PUSH8 0xFFFFFFFFFFFFFFFF DUP3 GT ISZERO PUSH2 0x19BF JUMPI PUSH2 0x19BE PUSH2 0x1929 JUMP JUMPDEST JUMPDEST PUSH2 0x19C8 DUP3 PUSH2 0x13BF JUMP JUMPDEST SWAP1 POP PUSH1 0x20 DUP2 ADD SWAP1 POP SWAP2 SWAP1 POP JUMP JUMPDEST PUSH1 0x0 PUSH2 0x19E8 PUSH2 0x19E3 DUP5 PUSH2 0x19A4 JUMP JUMPDEST PUSH2 0x1989 JUMP JUMPDEST SWAP1 POP DUP3 DUP2 MSTORE PUSH1 0x20 DUP2 ADD DUP5 DUP5 DUP5 ADD GT ISZERO PUSH2 0x1A04 JUMPI PUSH2 0x1A03 PUSH2 0x1924 JUMP JUMPDEST JUMPDEST PUSH2 0x1A0F DUP5 DUP3 DUP6 PUSH2 0x1395 JUMP JUMPDEST POP SWAP4 SWAP3 POP POP POP JUMP JUMPDEST PUSH1 0x0 DUP3 PUSH1 0x1F DUP4 ADD SLT PUSH2 0x1A2C JUMPI PUSH2 0x1A2B PUSH2 0x1553 JUMP JUMPDEST JUMPDEST DUP2 MLOAD PUSH2 0x1A3C DUP5 DUP3 PUSH1 0x20 DUP7 ADD PUSH2 0x19D5 JUMP JUMPDEST SWAP2 POP POP SWAP3 SWAP2 POP POP JUMP JUMPDEST PUSH1 0x0 PUSH1 0x20 DUP3 DUP5 SUB SLT ISZERO PUSH2 0x1A5B JUMPI PUSH2 0x1A5A PUSH2 0x1233 JUMP JUMPDEST JUMPDEST PUSH1 0x0 DUP3 ADD MLOAD PUSH8 0xFFFFFFFFFFFFFFFF DUP2 GT ISZERO PUSH2 0x1A79 JUMPI PUSH2 0x1A78 PUSH2 0x1238 JUMP JUMPDEST JUMPDEST PUSH2 0x1A85 DUP5 DUP3 DUP6 ADD PUSH2 0x1A17 JUMP JUMPDEST SWAP2 POP POP SWAP3 SWAP2 POP POP JUMP JUMPDEST PUSH2 0x1A97 DUP2 PUSH2 0x1409 JUMP JUMPDEST DUP2 EQ PUSH2 0x1AA2 JUMPI PUSH1 0x0 DUP1 REVERT JUMPDEST POP JUMP JUMPDEST PUSH1 0x0 DUP2 MLOAD SWAP1 POP PUSH2 0x1AB4 DUP2 PUSH2 0x1A8E JUMP JUMPDEST SWAP3 SWAP2 POP POP JUMP JUMPDEST PUSH1 0x0 PUSH1 0x20 DUP3 DUP5 SUB SLT ISZERO PUSH2 0x1AD0 JUMPI PUSH2 0x1ACF PUSH2 0x1233 JUMP JUMPDEST JUMPDEST PUSH1 0x0 PUSH2 0x1ADE DUP5 DUP3 DUP6 ADD PUSH2 0x1AA5 JUMP JUMPDEST SWAP2 POP POP SWAP3 SWAP2 POP POP JUMP JUMPDEST PUSH2 0x1AF0 DUP2 PUSH2 0x1425 JUMP JUMPDEST DUP2 EQ PUSH2 0x1AFB JUMPI PUSH1 0x0 DUP1 REVERT JUMPDEST POP JUMP JUMPDEST PUSH1 0x0 DUP2 MLOAD SWAP1 POP PUSH2 0x1B0D DUP2 PUSH2 0x1AE7 JUMP JUMPDEST SWAP3 SWAP2 POP POP JUMP JUMPDEST PUSH1 0x0 PUSH1 0x20 DUP3 DUP5 SUB SLT ISZERO PUSH2 0x1B29 JUMPI PUSH2 0x1B28 PUSH2 0x1233 JUMP JUMPDEST JUMPDEST PUSH1 0x0 PUSH2 0x1B37 DUP5 DUP3 DUP6 ADD PUSH2 0x1AFE JUMP JUMPDEST SWAP2 POP POP SWAP3 SWAP2 POP POP JUMP JUMPDEST PUSH1 0x0 DUP2 MLOAD SWAP1 POP PUSH2 0x1B4F DUP2 PUSH2 0x126F JUMP JUMPDEST SWAP3 SWAP2 POP POP JUMP JUMPDEST PUSH1 0x0 PUSH1 0x20 DUP3 DUP5 SUB SLT ISZERO PUSH2 0x1B6B JUMPI PUSH2 0x1B6A PUSH2 0x1233 JUMP JUMPDEST JUMPDEST PUSH1 0x0 PUSH2 0x1B79 DUP5 DUP3 DUP6 ADD PUSH2 0x1B40 JUMP JUMPDEST SWAP2 POP POP SWAP3 SWAP2 POP POP JUMP JUMPDEST PUSH1 0x0 DUP2 SWAP1 POP DUP2 PUSH1 0x0 MSTORE PUSH1 0x20 PUSH1 0x0 KECCAK256 SWAP1 POP SWAP2 SWAP1 POP JUMP JUMPDEST PUSH1 0x0 PUSH1 0x20 PUSH1 0x1F DUP4 ADD DIV SWAP1 POP SWAP2 SWAP1 POP JUMP JUMPDEST PUSH1 0x0 DUP3 DUP3 SHL SWAP1 POP SWAP3 SWAP2 POP POP JUMP JUMPDEST PUSH1 0x0 PUSH1 0x8 DUP4 MUL PUSH2 0x1BE4 PUSH32 0xFFFFFFFFFFFFFFFFFFFFFFFFFFFFFFFFFFFFFFFFFFFFFFFFFFFFFFFFFFFFFFFF DUP3 PUSH2 0x1BA7 JUMP JUMPDEST PUSH2 0x1BEE DUP7 DUP4 PUSH2 0x1BA7 JUMP JUMPDEST SWAP6 POP DUP1 NOT DUP5 AND SWAP4 POP DUP1 DUP7 AND DUP5 OR SWAP3 POP POP POP SWAP4 SWAP3 POP POP POP JUMP JUMPDEST PUSH1 0x0 DUP2 SWAP1 POP SWAP2 SWAP1 POP JUMP JUMPDEST PUSH1 0x0 PUSH2 0x1C2B PUSH2 0x1C26 PUSH2 0x1C21 DUP5 PUSH2 0x1425 JUMP JUMPDEST PUSH2 0x1C06 JUMP JUMPDEST PUSH2 0x1425 JUMP JUMPDEST SWAP1 POP SWAP2 SWAP1 POP JUMP JUMPDEST PUSH1 0x0 DUP2 SWAP1 POP SWAP2 SWAP1 POP JUMP JUMPDEST PUSH2 0x1C45 DUP4 PUSH2 0x1C10 JUMP JUMPDEST PUSH2 0x1C59 PUSH2 0x1C51 DUP3 PUSH2 0x1C32 JUMP JUMPDEST DUP5 DUP5 SLOAD PUSH2 0x1BB4 JUMP JUMPDEST DUP3 SSTORE POP POP POP POP JUMP JUMPDEST PUSH1 0x0 SWAP1 JUMP JUMPDEST PUSH2 0x1C6E PUSH2 0x1C61 JUMP JUMPDEST PUSH2 0x1C79 DUP2 DUP5 DUP5 PUSH2 0x1C3C JUMP JUMPDEST POP POP POP JUMP JUMPDEST JUMPDEST DUP2 DUP2 LT ISZERO PUSH2 0x1C9D JUMPI PUSH2 0x1C92 PUSH1 0x0 DUP3 PUSH2 0x1C66 JUMP JUMPDEST PUSH1 0x1 DUP2 ADD SWAP1 POP PUSH2 0x1C7F JUMP JUMPDEST POP POP JUMP JUMPDEST PUSH1 0x1F DUP3 GT ISZERO PUSH2 0x1CE2 JUMPI PUSH2 0x1CB3 DUP2 PUSH2 0x1B82 JUMP JUMPDEST PUSH2 0x1CBC DUP5 PUSH2 0x1B97 JUMP JUMPDEST DUP2 ADD PUSH1 0x20 DUP6 LT ISZERO PUSH2 0x1CCB JUMPI DUP2 SWAP1 POP JUMPDEST PUSH2 0x1CDF PUSH2 0x1CD7 DUP6 PUSH2 0x1B97 JUMP JUMPDEST DUP4 ADD DUP3 PUSH2 0x1C7E JUMP JUMPDEST POP POP JUMPDEST POP POP POP JUMP JUMPDEST PUSH1 0x0 DUP3 DUP3 SHR SWAP1 POP SWAP3 SWAP2 POP POP JUMP JUMPDEST PUSH1 0x0 PUSH2 0x1D05 PUSH1 0x0 NOT DUP5 PUSH1 0x8 MUL PUSH2 0x1CE7 JUMP JUMPDEST NOT DUP1 DUP4 AND SWAP2 POP POP SWAP3 SWAP2 POP POP JUMP JUMPDEST PUSH1 0x0 PUSH2 0x1D1E DUP4 DUP4 PUSH2 0x1CF4 JUMP JUMPDEST SWAP2 POP DUP3 PUSH1 0x2 MUL DUP3 OR SWAP1 POP SWAP3 SWAP2 POP POP JUMP JUMPDEST PUSH2 0x1D37 DUP3 PUSH2 0x1379 JUMP JUMPDEST PUSH8 0xFFFFFFFFFFFFFFFF DUP2 GT ISZERO PUSH2 0x1D50 JUMPI PUSH2 0x1D4F PUSH2 0x1929 JUMP JUMPDEST JUMPDEST PUSH2 0x1D5A DUP3 SLOAD PUSH2 0x1876 JUMP JUMPDEST PUSH2 0x1D65 DUP3 DUP3 DUP6 PUSH2 0x1CA1 JUMP JUMPDEST PUSH1 0x0 PUSH1 0x20 SWAP1 POP PUSH1 0x1F DUP4 GT PUSH1 0x1 DUP2 EQ PUSH2 0x1D98 JUMPI PUSH1 0x0 DUP5 ISZERO PUSH2 0x1D86 JUMPI DUP3 DUP8 ADD MLOAD SWAP1 POP JUMPDEST PUSH2 0x1D90 DUP6 DUP3 PUSH2 0x1D12 JUMP JUMPDEST DUP7 SSTORE POP PUSH2 0x1DF8 JUMP JUMPDEST PUSH1 0x1F NOT DUP5 AND PUSH2 0x1DA6 DUP7 PUSH2 0x1B82 JUMP JUMPDEST PUSH1 0x0 JUMPDEST DUP3 DUP2 LT ISZERO PUSH2 0x1DCE JUMPI DUP5 DUP10 ADD MLOAD DUP3 SSTORE PUSH1 0x1 DUP3 ADD SWAP2 POP PUSH1 0x20 DUP6 ADD SWAP5 POP PUSH1 0x20 DUP2 ADD SWAP1 POP PUSH2 0x1DA9 JUMP JUMPDEST DUP7 DUP4 LT ISZERO PUSH2 0x1DEB JUMPI DUP5 DUP10 ADD MLOAD PUSH2 0x1DE7 PUSH1 0x1F DUP10 AND DUP3 PUSH2 0x1CF4 JUMP JUMPDEST DUP4 SSTORE POP JUMPDEST PUSH1 0x1 PUSH1 0x2 DUP9 MUL ADD DUP9 SSTORE POP POP POP JUMPDEST POP POP POP POP POP POP JUMP JUMPDEST PUSH32 0x4E487B7100000000000000000000000000000000000000000000000000000000 PUSH1 0x0 MSTORE PUSH1 0x11 PUSH1 0x4 MSTORE PUSH1 0x24 PUSH1 0x0 REVERT JUMPDEST PUSH1 0x0 PUSH2 0x1E3A DUP3 PUSH2 0x1425 JUMP JUMPDEST SWAP2 POP PUSH2 0x1E45 DUP4 PUSH2 0x1425 JUMP JUMPDEST SWAP3 POP DUP3 DUP3 ADD SWAP1 POP DUP1 DUP3 GT ISZERO PUSH2 0x1E5D JUMPI PUSH2 0x1E5C PUSH2 0x1E00 JUMP JUMPDEST JUMPDEST SWAP3 SWAP2 POP POP JUMP JUMPDEST PUSH32 0x546F6F206D616E7920746F6B656E7320746F20616E616C797A65206174206F6E PUSH1 0x0 DUP3 ADD MSTORE PUSH32 0x6365000000000000000000000000000000000000000000000000000000000000 PUSH1 0x20 DUP3 ADD MSTORE POP JUMP JUMPDEST PUSH1 0x0 PUSH2 0x1EBF PUSH1 0x22 DUP4 PUSH2 0x18A7 JUMP JUMPDEST SWAP2 POP PUSH2 0x1ECA DUP3 PUSH2 0x1E63 JUMP JUMPDEST PUSH1 0x40 DUP3 ADD SWAP1 POP SWAP2 SWAP1 POP JUMP JUMPDEST PUSH1 0x0 PUSH1 0x20 DUP3 ADD SWAP1 POP DUP2 DUP2 SUB PUSH1 0x0 DUP4 ADD MSTORE PUSH2 0x1EEE DUP2 PUSH2 0x1EB2 JUMP JUMPDEST SWAP1 POP SWAP2 SWAP1 POP JUMP JUMPDEST PUSH32 0x4E487B7100000000000000000000000000000000000000000000000000000000 PUSH1 0x0 MSTORE PUSH1 0x32 PUSH1 0x4 MSTORE PUSH1 0x24 PUSH1 0x0 REVERT JUMPDEST PUSH1 0x0 DUP1 REVERT JUMPDEST PUSH1 0x0 DUP1 REVERT JUMPDEST PUSH1 0x0 DUP2 MLOAD SWAP1 POP PUSH2 0x1F3D DUP2 PUSH2 0x1779 JUMP JUMPDEST SWAP3 SWAP2 POP POP JUMP JUMPDEST PUSH1 0x0 PUSH1 0xC0 DUP3 DUP5 SUB SLT ISZERO PUSH2 0x1F59 JUMPI PUSH2 0x1F58 PUSH2 0x1F24 JUMP JUMPDEST JUMPDEST PUSH2 0x1F63 PUSH1 0xC0 PUSH2 0x1989 JUMP JUMPDEST SWAP1 POP PUSH1 0x0 DUP3 ADD MLOAD PUSH8 0xFFFFFFFFFFFFFFFF DUP2 GT ISZERO PUSH2 0x1F83 JUMPI PUSH2 0x1F82 PUSH2 0x1F29 JUMP JUMPDEST JUMPDEST PUSH2 0x1F8F DUP5 DUP3 DUP6 ADD PUSH2 0x1A17 JUMP JUMPDEST PUSH1 0x0 DUP4 ADD MSTORE POP PUSH1 0x20 DUP3 ADD MLOAD PUSH8 0xFFFFFFFFFFFFFFFF DUP2 GT ISZERO PUSH2 0x1FB3 JUMPI PUSH2 0x1FB2 PUSH2 0x1F29 JUMP JUMPDEST JUMPDEST PUSH2 0x1FBF DUP5 DUP3 DUP6 ADD PUSH2 0x1A17 JUMP JUMPDEST PUSH1 0x20 DUP4 ADD MSTORE POP PUSH1 0x40 PUSH2 0x1FD3 DUP5 DUP3 DUP6 ADD PUSH2 0x1AA5 JUMP JUMPDEST PUSH1 0x40 DUP4 ADD MSTORE POP PUSH1 0x60 PUSH2 0x1FE7 DUP5 DUP3 DUP6 ADD PUSH2 0x1AFE JUMP JUMPDEST PUSH1 0x60 DUP4 ADD MSTORE POP PUSH1 0x80 PUSH2 0x1FFB DUP5 DUP3 DUP6 ADD PUSH2 0x1B40 JUMP JUMPDEST PUSH1 0x80 DUP4 ADD MSTORE POP PUSH1 0xA0 PUSH2 0x200F DUP5 DUP3 DUP6 ADD PUSH2 0x1F2E JUMP JUMPDEST PUSH1 0xA0 DUP4 ADD MSTORE POP SWAP3 SWAP2 POP POP JUMP JUMPDEST PUSH1 0x0 PUSH1 0x20 DUP3 DUP5 SUB SLT ISZERO PUSH2 0x2031 JUMPI PUSH2 0x2030 PUSH2 0x1233 JUMP JUMPDEST JUMPDEST PUSH1 0x0 DUP3 ADD MLOAD PUSH8 0xFFFFFFFFFFFFFFFF DUP2 GT ISZERO PUSH2 0x204F JUMPI PUSH2 0x204E PUSH2 0x1238 JUMP JUMPDEST JUMPDEST PUSH2 0x205B DUP5 DUP3 DUP6 ADD PUSH2 0x1F43 JUMP JUMPDEST SWAP2 POP POP SWAP3 SWAP2 POP POP JUMP JUMPDEST PUSH1 0x0 PUSH2 0x206F DUP3 PUSH2 0x1425 JUMP JUMPDEST SWAP2 POP PUSH32 0xFFFFFFFFFFFFFFFFFFFFFFFFFFFFFFFFFFFFFFFFFFFFFFFFFFFFFFFFFFFFFFFF DUP3 SUB PUSH2 0x20A1 JUMPI PUSH2 0x20A0 PUSH2 0x1E00 JUMP JUMPDEST JUMPDEST PUSH1 0x1 DUP3 ADD SWAP1 POP SWAP2 SWAP1 POP JUMP JUMPDEST PUSH32 0x4F776E61626C653A206E6577206F776E657220697320746865207A65726F2061 PUSH1 0x0 DUP3 ADD MSTORE PUSH32 0x6464726573730000000000000000000000000000000000000000000000000000 PUSH1 0x20 DUP3 ADD MSTORE POP JUMP JUMPDEST PUSH1 0x0 PUSH2 0x2108 PUSH1 0x26 DUP4 PUSH2 0x18A7 JUMP JUMPDEST SWAP2 POP PUSH2 0x2113 DUP3 PUSH2 0x20AC JUMP JUMPDEST PUSH1 0x40 DUP3 ADD SWAP1 POP SWAP2 SWAP1 POP JUMP JUMPDEST PUSH1 0x0 PUSH1 0x20 DUP3 ADD SWAP1 POP DUP2 DUP2 SUB PUSH1 0x0 DUP4 ADD MSTORE PUSH2 0x2137 DUP2 PUSH2 0x20FB JUMP JUMPDEST SWAP1 POP SWAP2 SWAP1 POP JUMP JUMPDEST PUSH32 0x5265656E7472616E637947756172643A207265656E7472616E742063616C6C00 PUSH1 0x0 DUP3 ADD MSTORE POP JUMP JUMPDEST PUSH1 0x0 PUSH2 0x2174 PUSH1 0x1F DUP4 PUSH2 0x18A7 JUMP JUMPDEST SWAP2 POP PUSH2 0x217F DUP3 PUSH2 0x213E JUMP JUMPDEST PUSH1 0x20 DUP3 ADD SWAP1 POP SWAP2 SWAP1 POP JUMP JUMPDEST PUSH1 0x0 PUSH1 0x20 DUP3 ADD SWAP1 POP DUP2 DUP2 SUB PUSH1 0x0 DUP4 ADD MSTORE PUSH2 0x21A3 DUP2 PUSH2 0x2167 JUMP JUMPDEST SWAP1 POP SWAP2 SWAP1 POP JUMP JUMPDEST PUSH32 0x4F776E61626C653A2063616C6C6572206973206E6F7420746865206F776E6572 PUSH1 0x0 DUP3 ADD MSTORE POP JUMP JUMPDEST PUSH1 0x0 PUSH2 0x21E0 PUSH1 0x20 DUP4 PUSH2 0x18A7 JUMP JUMPDEST SWAP2 POP PUSH2 0x21EB DUP3 PUSH2 0x21AA JUMP JUMPDEST PUSH1 0x20 DUP3 ADD SWAP1 POP SWAP2 SWAP1 POP JUMP JUMPDEST PUSH1 0x0 PUSH1 0x20 DUP3 ADD SWAP1 POP DUP2 DUP2 SUB PUSH1 0x0 DUP4 ADD MSTORE PUSH2 0x220F DUP2 PUSH2 0x21D3 JUMP JUMPDEST SWAP1 POP SWAP2 SWAP1 POP JUMP INVALID LOG2 PUSH5 0x6970667358 0x22 SLT KECCAK256 PUSH28 0x188F82AF2253EA678896F40AD3974CD3612825DD3E5ED76688E01C39 PUSH25 0xD0D64736F6C63430008130033000000000000000000000000 "},"methodIdentifiers":{"analyzeToken(address)":"59a573b3","batchAnalyze(address[])":"ab999841","calculateRiskScore(address)":"91d011ce","checkSecurityFlags(address)":"1dee7643","getTokenInfo(address)":"1f69565f","owner()":"8da5cb5b","renounceOwnership()":"715018a6","setSecurityFlags(address,bool,bool,bool,bool,bool,bool)":"e8b600ba","transferOwnership(address)":"f2fde38b"}}}}}